{
  "contractName": "GTAGAMING",
  "abi": [
    {
      "inputs": [],
      "stateMutability": "nonpayable",
      "type": "constructor"
    },
    {
      "anonymous": false,
      "inputs": [
        {
          "indexed": true,
          "internalType": "address",
          "name": "owner",
          "type": "address"
        },
        {
          "indexed": true,
          "internalType": "address",
          "name": "spender",
          "type": "address"
        },
        {
          "indexed": false,
          "internalType": "uint256",
          "name": "value",
          "type": "uint256"
        }
      ],
      "name": "Approval",
      "type": "event"
    },
    {
      "anonymous": false,
      "inputs": [
        {
          "indexed": true,
          "internalType": "address",
          "name": "owner",
          "type": "address"
        },
        {
          "indexed": true,
          "internalType": "uint256",
          "name": "amount",
          "type": "uint256"
        },
        {
          "indexed": true,
          "internalType": "uint256",
          "name": "time",
          "type": "uint256"
        }
      ],
      "name": "Staked",
      "type": "event"
    },
    {
      "anonymous": false,
      "inputs": [
        {
          "indexed": true,
          "internalType": "address",
          "name": "from",
          "type": "address"
        },
        {
          "indexed": true,
          "internalType": "address",
          "name": "to",
          "type": "address"
        },
        {
          "indexed": false,
          "internalType": "uint256",
          "name": "value",
          "type": "uint256"
        }
      ],
      "name": "Transfer",
      "type": "event"
    },
    {
      "anonymous": false,
      "inputs": [
        {
          "indexed": true,
          "internalType": "address",
          "name": "owner",
          "type": "address"
        },
        {
          "indexed": true,
          "internalType": "uint256",
          "name": "amount",
          "type": "uint256"
        },
        {
          "indexed": true,
          "internalType": "uint256",
          "name": "time",
          "type": "uint256"
        }
      ],
      "name": "Unstaked",
      "type": "event"
    },
    {
      "inputs": [
        {
          "internalType": "address",
          "name": "owner",
          "type": "address"
        },
        {
          "internalType": "address",
          "name": "spender",
          "type": "address"
        }
      ],
      "name": "allowance",
      "outputs": [
        {
          "internalType": "uint256",
          "name": "",
          "type": "uint256"
        }
      ],
      "stateMutability": "view",
      "type": "function",
      "constant": true
    },
    {
      "inputs": [
        {
          "internalType": "address",
          "name": "spender",
          "type": "address"
        },
        {
          "internalType": "uint256",
          "name": "amount",
          "type": "uint256"
        }
      ],
      "name": "approve",
      "outputs": [
        {
          "internalType": "bool",
          "name": "",
          "type": "bool"
        }
      ],
      "stateMutability": "nonpayable",
      "type": "function"
    },
    {
      "inputs": [
        {
          "internalType": "address",
          "name": "account",
          "type": "address"
        }
      ],
      "name": "balanceOf",
      "outputs": [
        {
          "internalType": "uint256",
          "name": "",
          "type": "uint256"
        }
      ],
      "stateMutability": "view",
      "type": "function",
      "constant": true
    },
    {
      "inputs": [],
      "name": "decimals",
      "outputs": [
        {
          "internalType": "uint8",
          "name": "",
          "type": "uint8"
        }
      ],
      "stateMutability": "view",
      "type": "function",
      "constant": true
    },
    {
      "inputs": [
        {
          "internalType": "address",
          "name": "spender",
          "type": "address"
        },
        {
          "internalType": "uint256",
          "name": "subtractedValue",
          "type": "uint256"
        }
      ],
      "name": "decreaseAllowance",
      "outputs": [
        {
          "internalType": "bool",
          "name": "",
          "type": "bool"
        }
      ],
      "stateMutability": "nonpayable",
      "type": "function"
    },
    {
      "inputs": [
        {
          "internalType": "address",
          "name": "spender",
          "type": "address"
        },
        {
          "internalType": "uint256",
          "name": "addedValue",
          "type": "uint256"
        }
      ],
      "name": "increaseAllowance",
      "outputs": [
        {
          "internalType": "bool",
          "name": "",
          "type": "bool"
        }
      ],
      "stateMutability": "nonpayable",
      "type": "function"
    },
    {
      "inputs": [],
      "name": "name",
      "outputs": [
        {
          "internalType": "string",
          "name": "",
          "type": "string"
        }
      ],
      "stateMutability": "view",
      "type": "function",
      "constant": true
    },
    {
      "inputs": [],
      "name": "symbol",
      "outputs": [
        {
          "internalType": "string",
          "name": "",
          "type": "string"
        }
      ],
      "stateMutability": "view",
      "type": "function",
      "constant": true
    },
    {
      "inputs": [],
      "name": "totalSupply",
      "outputs": [
        {
          "internalType": "uint256",
          "name": "",
          "type": "uint256"
        }
      ],
      "stateMutability": "view",
      "type": "function",
      "constant": true
    },
    {
      "inputs": [
        {
          "internalType": "address",
          "name": "recipient",
          "type": "address"
        },
        {
          "internalType": "uint256",
          "name": "amount",
          "type": "uint256"
        }
      ],
      "name": "transfer",
      "outputs": [
        {
          "internalType": "bool",
          "name": "",
          "type": "bool"
        }
      ],
      "stateMutability": "nonpayable",
      "type": "function"
    },
    {
      "inputs": [
        {
          "internalType": "address",
          "name": "sender",
          "type": "address"
        },
        {
          "internalType": "address",
          "name": "recipient",
          "type": "address"
        },
        {
          "internalType": "uint256",
          "name": "amount",
          "type": "uint256"
        }
      ],
      "name": "transferFrom",
      "outputs": [
        {
          "internalType": "bool",
          "name": "",
          "type": "bool"
        }
      ],
      "stateMutability": "nonpayable",
      "type": "function"
    },
    {
      "inputs": [],
      "name": "_address",
      "outputs": [
        {
          "internalType": "address",
          "name": "",
          "type": "address"
        }
      ],
      "stateMutability": "view",
      "type": "function",
      "constant": true
    },
    {
      "inputs": [],
      "name": "_circulatingSupply",
      "outputs": [
        {
          "internalType": "uint256",
          "name": "",
          "type": "uint256"
        }
      ],
      "stateMutability": "view",
      "type": "function",
      "constant": true
    },
    {
      "inputs": [],
      "name": "_rewardSupply",
      "outputs": [
        {
          "internalType": "uint256",
          "name": "",
          "type": "uint256"
        }
      ],
      "stateMutability": "view",
      "type": "function",
      "constant": true
    },
    {
      "inputs": [],
      "name": "receive",
      "outputs": [],
      "stateMutability": "payable",
      "type": "function",
      "payable": true
    },
    {
      "inputs": [],
      "name": "getBalance",
      "outputs": [
        {
          "internalType": "uint256",
          "name": "",
          "type": "uint256"
        }
      ],
      "stateMutability": "view",
      "type": "function",
      "constant": true
    },
    {
      "inputs": [
        {
          "internalType": "address",
          "name": "owner",
          "type": "address"
        }
      ],
      "name": "_getTotalStakedAmout",
      "outputs": [
        {
          "internalType": "uint256",
          "name": "",
          "type": "uint256"
        }
      ],
      "stateMutability": "view",
      "type": "function",
      "constant": true
    },
    {
      "inputs": [
        {
          "internalType": "address",
          "name": "owner",
          "type": "address"
        }
      ],
      "name": "_getInitialStakeDate",
      "outputs": [
        {
          "internalType": "uint256",
          "name": "",
          "type": "uint256"
        }
      ],
      "stateMutability": "view",
      "type": "function",
      "constant": true
    },
    {
      "inputs": [
        {
          "internalType": "address",
          "name": "owner",
          "type": "address"
        },
        {
          "internalType": "uint256",
          "name": "amount",
          "type": "uint256"
        }
      ],
      "name": "stake",
      "outputs": [
        {
          "internalType": "bool",
          "name": "",
          "type": "bool"
        }
      ],
      "stateMutability": "nonpayable",
      "type": "function"
    },
    {
      "inputs": [
        {
          "internalType": "address",
          "name": "owner",
          "type": "address"
        },
        {
          "internalType": "uint256",
          "name": "amount",
          "type": "uint256"
        }
      ],
      "name": "unstake",
      "outputs": [
        {
          "internalType": "bool",
          "name": "",
          "type": "bool"
        }
      ],
      "stateMutability": "nonpayable",
      "type": "function"
    },
    {
      "inputs": [
        {
          "internalType": "address",
          "name": "owner",
          "type": "address"
        }
      ],
      "name": "showReward",
      "outputs": [
        {
          "internalType": "uint256",
          "name": "",
          "type": "uint256"
        }
      ],
      "stateMutability": "view",
      "type": "function",
      "constant": true
    }
  ],
  "bytecode": "0x60806040526203f4806005556012600a6200001b91906200050e565b6323c346006200002c91906200055f565b6006556004600654620000409190620005ef565b6007556003600654620000549190620005ef565b6008556002601262000067919062000627565b600a6200007591906200050e565b600d6200008391906200055f565b6009553480156200009357600080fd5b506040518060400160405280601081526020017f6772616e64746865667467616d696e67000000000000000000000000000000008152506040518060400160405280600381526020017f4754410000000000000000000000000000000000000000000000000000000000815250816003908051906020019062000118929190620002d1565b50806004908051906020019062000131929190620002d1565b50505062000148336006546200014e60201b60201c565b620007d5565b600073ffffffffffffffffffffffffffffffffffffffff168273ffffffffffffffffffffffffffffffffffffffff161415620001c1576040517f08c379a0000000000000000000000000000000000000000000000000000000008152600401620001b890620006c3565b60405180910390fd5b620001d560008383620002c760201b60201c565b8060026000828254620001e99190620006e5565b92505081905550806000808473ffffffffffffffffffffffffffffffffffffffff1673ffffffffffffffffffffffffffffffffffffffff1681526020019081526020016000206000828254620002409190620006e5565b925050819055508173ffffffffffffffffffffffffffffffffffffffff16600073ffffffffffffffffffffffffffffffffffffffff167fddf252ad1be2c89b69c2b068fc378daa952ba7f163c4a11628f55a4df523b3ef83604051620002a7919062000753565b60405180910390a3620002c360008383620002cc60201b60201c565b5050565b505050565b505050565b828054620002df906200079f565b90600052602060002090601f0160209004810192826200030357600085556200034f565b82601f106200031e57805160ff19168380011785556200034f565b828001600101855582156200034f579182015b828111156200034e57825182559160200191906001019062000331565b5b5090506200035e919062000362565b5090565b5b808211156200037d57600081600090555060010162000363565b5090565b7f4e487b7100000000000000000000000000000000000000000000000000000000600052601160045260246000fd5b60008160011c9050919050565b6000808291508390505b60018511156200040f57808604811115620003e757620003e662000381565b5b6001851615620003f75780820291505b80810290506200040785620003b0565b9450620003c7565b94509492505050565b6000826200042a5760019050620004fd565b816200043a5760009050620004fd565b81600181146200045357600281146200045e5762000494565b6001915050620004fd565b60ff84111562000473576200047262000381565b5b8360020a9150848211156200048d576200048c62000381565b5b50620004fd565b5060208310610133831016604e8410600b8410161715620004ce5782820a905083811115620004c857620004c762000381565b5b620004fd565b620004dd8484846001620003bd565b92509050818404811115620004f757620004f662000381565b5b81810290505b9392505050565b6000819050919050565b60006200051b8262000504565b9150620005288362000504565b9250620005577fffffffffffffffffffffffffffffffffffffffffffffffffffffffffffffffff848462000418565b905092915050565b60006200056c8262000504565b9150620005798362000504565b9250817fffffffffffffffffffffffffffffffffffffffffffffffffffffffffffffffff0483118215151615620005b557620005b462000381565b5b828202905092915050565b7f4e487b7100000000000000000000000000000000000000000000000000000000600052601260045260246000fd5b6000620005fc8262000504565b9150620006098362000504565b9250826200061c576200061b620005c0565b5b828204905092915050565b6000620006348262000504565b9150620006418362000504565b92508282101562000657576200065662000381565b5b828203905092915050565b600082825260208201905092915050565b7f45524332303a206d696e7420746f20746865207a65726f206164647265737300600082015250565b6000620006ab601f8362000662565b9150620006b88262000673565b602082019050919050565b60006020820190508181036000830152620006de816200069c565b9050919050565b6000620006f28262000504565b9150620006ff8362000504565b9250827fffffffffffffffffffffffffffffffffffffffffffffffffffffffffffffffff0382111562000737576200073662000381565b5b828201905092915050565b6200074d8162000504565b82525050565b60006020820190506200076a600083018462000742565b92915050565b7f4e487b7100000000000000000000000000000000000000000000000000000000600052602260045260246000fd5b60006002820490506001821680620007b857607f821691505b60208210811415620007cf57620007ce62000770565b5b50919050565b61245480620007e56000396000f3fe60806040526004361061012a5760003560e01c806370a08231116100ab578063a9059cbb1161006f578063a9059cbb146103ff578063adc9772e1461043c578063b1c37c6814610479578063c2a672e0146104b6578063c45af5d8146104f3578063dd62ed3e146105305761012a565b806370a082311461032557806395d89b4114610362578063a253c06e1461038d578063a3e76c0f146103b8578063a457c2d7146103c25761012a565b8063229e89fc116100f2578063229e89fc1461021857806323b872dd146102435780632cfdd13414610280578063313ce567146102bd57806339509351146102e85761012a565b806306fdde031461012f578063095ea7b31461015a57806312065fe01461019757806318160ddd146101c257806318bad217146101ed575b600080fd5b34801561013b57600080fd5b5061014461056d565b604051610151919061191c565b60405180910390f35b34801561016657600080fd5b50610181600480360381019061017c91906119d7565b6105ff565b60405161018e9190611a32565b60405180910390f35b3480156101a357600080fd5b506101ac61061d565b6040516101b99190611a5c565b60405180910390f35b3480156101ce57600080fd5b506101d7610625565b6040516101e49190611a5c565b60405180910390f35b3480156101f957600080fd5b5061020261062f565b60405161020f9190611a86565b60405180910390f35b34801561022457600080fd5b5061022d610637565b60405161023a9190611a5c565b60405180910390f35b34801561024f57600080fd5b5061026a60048036038101906102659190611aa1565b610641565b6040516102779190611a32565b60405180910390f35b34801561028c57600080fd5b506102a760048036038101906102a29190611af4565b610739565b6040516102b49190611a5c565b60405180910390f35b3480156102c957600080fd5b506102d26107d3565b6040516102df9190611b3d565b60405180910390f35b3480156102f457600080fd5b5061030f600480360381019061030a91906119d7565b6107dc565b60405161031c9190611a32565b60405180910390f35b34801561033157600080fd5b5061034c60048036038101906103479190611af4565b610888565b6040516103599190611a5c565b60405180910390f35b34801561036e57600080fd5b506103776108d0565b604051610384919061191c565b60405180910390f35b34801561039957600080fd5b506103a2610962565b6040516103af9190611a5c565b60405180910390f35b6103c061096c565b005b3480156103ce57600080fd5b506103e960048036038101906103e491906119d7565b6109d3565b6040516103f69190611a32565b60405180910390f35b34801561040b57600080fd5b50610426600480360381019061042191906119d7565b610abe565b6040516104339190611a32565b60405180910390f35b34801561044857600080fd5b50610463600480360381019061045e91906119d7565b610adc565b6040516104709190611a32565b60405180910390f35b34801561048557600080fd5b506104a0600480360381019061049b9190611af4565b610b56565b6040516104ad9190611a5c565b60405180910390f35b3480156104c257600080fd5b506104dd60048036038101906104d891906119d7565b610bf0565b6040516104ea9190611a32565b60405180910390f35b3480156104ff57600080fd5b5061051a60048036038101906105159190611af4565b610c6a565b6040516105279190611a5c565b60405180910390f35b34801561053c57600080fd5b5061055760048036038101906105529190611b58565b610c81565b6040516105649190611a5c565b60405180910390f35b60606003805461057c90611bc7565b80601f01602080910402602001604051908101604052809291908181526020018280546105a890611bc7565b80156105f55780601f106105ca576101008083540402835291602001916105f5565b820191906000526020600020905b8154815290600101906020018083116105d857829003601f168201915b5050505050905090565b600061061361060c610d08565b8484610d10565b6001905092915050565b600047905090565b6000600254905090565b600030905090565b6000600854905090565b600061064e848484610edb565b6000600160008673ffffffffffffffffffffffffffffffffffffffff1673ffffffffffffffffffffffffffffffffffffffff1681526020019081526020016000206000610699610d08565b73ffffffffffffffffffffffffffffffffffffffff1673ffffffffffffffffffffffffffffffffffffffff16815260200190815260200160002054905082811015610719576040517f08c379a000000000000000000000000000000000000000000000000000000000815260040161071090611c6b565b60405180910390fd5b61072d85610725610d08565b858403610d10565b60019150509392505050565b60006107448261115c565b610783576040517f08c379a000000000000000000000000000000000000000000000000000000000815260040161077a90611cfd565b60405180910390fd5b6000600b60008473ffffffffffffffffffffffffffffffffffffffff1673ffffffffffffffffffffffffffffffffffffffff16815260200190815260200160002090508060010154915050919050565b60006012905090565b600061087e6107e9610d08565b8484600160006107f7610d08565b73ffffffffffffffffffffffffffffffffffffffff1673ffffffffffffffffffffffffffffffffffffffff16815260200190815260200160002060008873ffffffffffffffffffffffffffffffffffffffff1673ffffffffffffffffffffffffffffffffffffffff168152602001908152602001600020546108799190611d4c565b610d10565b6001905092915050565b60008060008373ffffffffffffffffffffffffffffffffffffffff1673ffffffffffffffffffffffffffffffffffffffff168152602001908152602001600020549050919050565b6060600480546108df90611bc7565b80601f016020809104026020016040519081016040528092919081815260200182805461090b90611bc7565b80156109585780601f1061092d57610100808354040283529160200191610958565b820191906000526020600020905b81548152906001019060200180831161093b57829003601f168201915b5050505050905090565b6000600754905090565b3073ffffffffffffffffffffffffffffffffffffffff163373ffffffffffffffffffffffffffffffffffffffff167fddf252ad1be2c89b69c2b068fc378daa952ba7f163c4a11628f55a4df523b3ef346040516109c99190611a5c565b60405180910390a3565b600080600160006109e2610d08565b73ffffffffffffffffffffffffffffffffffffffff1673ffffffffffffffffffffffffffffffffffffffff16815260200190815260200160002060008573ffffffffffffffffffffffffffffffffffffffff1673ffffffffffffffffffffffffffffffffffffffff16815260200190815260200160002054905082811015610a9f576040517f08c379a0000000000000000000000000000000000000000000000000000000008152600401610a9690611e14565b60405180910390fd5b610ab3610aaa610d08565b85858403610d10565b600191505092915050565b6000610ad2610acb610d08565b8484610edb565b6001905092915050565b600080610ae984846111c3565b90508015610b4a57610afb848461134f565b42838573ffffffffffffffffffffffffffffffffffffffff167f1449c6dd7851abc30abf37f57715f492010519147cc2652fbc38202c18a6ee9060405160405180910390a46001915050610b50565b60009150505b92915050565b6000610b618261115c565b610ba0576040517f08c379a0000000000000000000000000000000000000000000000000000000008152600401610b9790611cfd565b60405180910390fd5b6000600b60008473ffffffffffffffffffffffffffffffffffffffff1673ffffffffffffffffffffffffffffffffffffffff16815260200190815260200160002090508060000154915050919050565b600080610bfd8484611526565b90508015610c5e57610c0f84846115eb565b42838573ffffffffffffffffffffffffffffffffffffffff167f7fc4727e062e336010f2c282598ef5f14facb3de68cf8195c2f23e1454b2b74e60405160405180910390a46001915050610c64565b60009150505b92915050565b600080610c768361174b565b905080915050919050565b6000600160008473ffffffffffffffffffffffffffffffffffffffff1673ffffffffffffffffffffffffffffffffffffffff16815260200190815260200160002060008373ffffffffffffffffffffffffffffffffffffffff1673ffffffffffffffffffffffffffffffffffffffff16815260200190815260200160002054905092915050565b600033905090565b600073ffffffffffffffffffffffffffffffffffffffff168373ffffffffffffffffffffffffffffffffffffffff161415610d80576040517f08c379a0000000000000000000000000000000000000000000000000000000008152600401610d7790611ea6565b60405180910390fd5b600073ffffffffffffffffffffffffffffffffffffffff168273ffffffffffffffffffffffffffffffffffffffff161415610df0576040517f08c379a0000000000000000000000000000000000000000000000000000000008152600401610de790611f38565b60405180910390fd5b80600160008573ffffffffffffffffffffffffffffffffffffffff1673ffffffffffffffffffffffffffffffffffffffff16815260200190815260200160002060008473ffffffffffffffffffffffffffffffffffffffff1673ffffffffffffffffffffffffffffffffffffffff168152602001908152602001600020819055508173ffffffffffffffffffffffffffffffffffffffff168373ffffffffffffffffffffffffffffffffffffffff167f8c5be1e5ebec7d5bd14f71427d1e84f3dd0314c0f7b2291e5b200ac8c7c3b92583604051610ece9190611a5c565b60405180910390a3505050565b600073ffffffffffffffffffffffffffffffffffffffff168373ffffffffffffffffffffffffffffffffffffffff161415610f4b576040517f08c379a0000000000000000000000000000000000000000000000000000000008152600401610f4290611fca565b60405180910390fd5b600073ffffffffffffffffffffffffffffffffffffffff168273ffffffffffffffffffffffffffffffffffffffff161415610fbb576040517f08c379a0000000000000000000000000000000000000000000000000000000008152600401610fb29061205c565b60405180910390fd5b610fc68383836117f4565b60008060008573ffffffffffffffffffffffffffffffffffffffff1673ffffffffffffffffffffffffffffffffffffffff1681526020019081526020016000205490508181101561104c576040517f08c379a0000000000000000000000000000000000000000000000000000000008152600401611043906120ee565b60405180910390fd5b8181036000808673ffffffffffffffffffffffffffffffffffffffff1673ffffffffffffffffffffffffffffffffffffffff16815260200190815260200160002081905550816000808573ffffffffffffffffffffffffffffffffffffffff1673ffffffffffffffffffffffffffffffffffffffff16815260200190815260200160002060008282546110df9190611d4c565b925050819055508273ffffffffffffffffffffffffffffffffffffffff168473ffffffffffffffffffffffffffffffffffffffff167fddf252ad1be2c89b69c2b068fc378daa952ba7f163c4a11628f55a4df523b3ef846040516111439190611a5c565b60405180910390a36111568484846117f9565b50505050565b6000600a60008373ffffffffffffffffffffffffffffffffffffffff1673ffffffffffffffffffffffffffffffffffffffff16815260200190815260200160002060009054906101000a900460ff16156111b957600190506111be565b600090505b919050565b6000806111cf8461115c565b9050801561123b576000600b60008673ffffffffffffffffffffffffffffffffffffffff1673ffffffffffffffffffffffffffffffffffffffff16815260200190815260200160002090508381600001600082825461122e9190611d4c565b9250508190555050611344565b604051806040016040528084815260200142815250600b60008673ffffffffffffffffffffffffffffffffffffffff1673ffffffffffffffffffffffffffffffffffffffff168152602001908152602001600020600082015181600001556020820151816001015590505042838573ffffffffffffffffffffffffffffffffffffffff167f1449c6dd7851abc30abf37f57715f492010519147cc2652fbc38202c18a6ee9060405160405180910390a46001600a60008673ffffffffffffffffffffffffffffffffffffffff1673ffffffffffffffffffffffffffffffffffffffff16815260200190815260200160002060006101000a81548160ff0219169083151502179055505b600191505092915050565b600073ffffffffffffffffffffffffffffffffffffffff168273ffffffffffffffffffffffffffffffffffffffff1614156113bf576040517f08c379a00000000000000000000000000000000000000000000000000000000081526004016113b690612180565b60405180910390fd5b6113cb826000836117f4565b60008060008473ffffffffffffffffffffffffffffffffffffffff1673ffffffffffffffffffffffffffffffffffffffff16815260200190815260200160002054905081811015611451576040517f08c379a000000000000000000000000000000000000000000000000000000000815260040161144890612212565b60405180910390fd5b8181036000808573ffffffffffffffffffffffffffffffffffffffff1673ffffffffffffffffffffffffffffffffffffffff1681526020019081526020016000208190555081600260008282546114a89190612232565b92505081905550600073ffffffffffffffffffffffffffffffffffffffff168373ffffffffffffffffffffffffffffffffffffffff167fddf252ad1be2c89b69c2b068fc378daa952ba7f163c4a11628f55a4df523b3ef8460405161150d9190611a5c565b60405180910390a3611521836000846117f9565b505050565b60006115318361115c565b61153a57600080fd5b611543836117fe565b611582576040517f08c379a0000000000000000000000000000000000000000000000000000000008152600401611579906122d8565b60405180910390fd5b6000600b60008573ffffffffffffffffffffffffffffffffffffffff1673ffffffffffffffffffffffffffffffffffffffff1681526020019081526020016000209050828160000160008282546115d99190612232565b92505081905550600191505092915050565b600073ffffffffffffffffffffffffffffffffffffffff168273ffffffffffffffffffffffffffffffffffffffff16141561165b576040517f08c379a000000000000000000000000000000000000000000000000000000000815260040161165290612344565b60405180910390fd5b611667600083836117f4565b80600260008282546116799190611d4c565b92505081905550806000808473ffffffffffffffffffffffffffffffffffffffff1673ffffffffffffffffffffffffffffffffffffffff16815260200190815260200160002060008282546116ce9190611d4c565b925050819055508173ffffffffffffffffffffffffffffffffffffffff16600073ffffffffffffffffffffffffffffffffffffffff167fddf252ad1be2c89b69c2b068fc378daa952ba7f163c4a11628f55a4df523b3ef836040516117339190611a5c565b60405180910390a3611747600083836117f9565b5050565b60006117568261115c565b61175f57600080fd5b6000600b60008473ffffffffffffffffffffffffffffffffffffffff1673ffffffffffffffffffffffffffffffffffffffff1681526020019081526020016000209050600081600001549050600060066301e13380426117bf9190612364565b6117c991906123ed565b9050600081600954846117dc91906123ed565b6117e69190612364565b905080945050505050919050565b505050565b505050565b60006118098261115c565b61181257600080fd5b6000600b60008473ffffffffffffffffffffffffffffffffffffffff1673ffffffffffffffffffffffffffffffffffffffff168152602001908152602001600020905060055481600101546118679190611d4c565b42111561187857600191505061187e565b60009150505b919050565b600081519050919050565b600082825260208201905092915050565b60005b838110156118bd5780820151818401526020810190506118a2565b838111156118cc576000848401525b50505050565b6000601f19601f8301169050919050565b60006118ee82611883565b6118f8818561188e565b935061190881856020860161189f565b611911816118d2565b840191505092915050565b6000602082019050818103600083015261193681846118e3565b905092915050565b600080fd5b600073ffffffffffffffffffffffffffffffffffffffff82169050919050565b600061196e82611943565b9050919050565b61197e81611963565b811461198957600080fd5b50565b60008135905061199b81611975565b92915050565b6000819050919050565b6119b4816119a1565b81146119bf57600080fd5b50565b6000813590506119d1816119ab565b92915050565b600080604083850312156119ee576119ed61193e565b5b60006119fc8582860161198c565b9250506020611a0d858286016119c2565b9150509250929050565b60008115159050919050565b611a2c81611a17565b82525050565b6000602082019050611a476000830184611a23565b92915050565b611a56816119a1565b82525050565b6000602082019050611a716000830184611a4d565b92915050565b611a8081611963565b82525050565b6000602082019050611a9b6000830184611a77565b92915050565b600080600060608486031215611aba57611ab961193e565b5b6000611ac88682870161198c565b9350506020611ad98682870161198c565b9250506040611aea868287016119c2565b9150509250925092565b600060208284031215611b0a57611b0961193e565b5b6000611b188482850161198c565b91505092915050565b600060ff82169050919050565b611b3781611b21565b82525050565b6000602082019050611b526000830184611b2e565b92915050565b60008060408385031215611b6f57611b6e61193e565b5b6000611b7d8582860161198c565b9250506020611b8e8582860161198c565b9150509250929050565b7f4e487b7100000000000000000000000000000000000000000000000000000000600052602260045260246000fd5b60006002820490506001821680611bdf57607f821691505b60208210811415611bf357611bf2611b98565b5b50919050565b7f45524332303a207472616e7366657220616d6f756e742065786365656473206160008201527f6c6c6f77616e6365000000000000000000000000000000000000000000000000602082015250565b6000611c5560288361188e565b9150611c6082611bf9565b604082019050919050565b60006020820190508181036000830152611c8481611c48565b9050919050565b7f596f75206d757374207374616b6520796f757220746f6b656e7320666972737460008201527f2e20546f207669657720796f7572207374616b6542616c616e63650000000000602082015250565b6000611ce7603b8361188e565b9150611cf282611c8b565b604082019050919050565b60006020820190508181036000830152611d1681611cda565b9050919050565b7f4e487b7100000000000000000000000000000000000000000000000000000000600052601160045260246000fd5b6000611d57826119a1565b9150611d62836119a1565b9250827fffffffffffffffffffffffffffffffffffffffffffffffffffffffffffffffff03821115611d9757611d96611d1d565b5b828201905092915050565b7f45524332303a2064656372656173656420616c6c6f77616e63652062656c6f7760008201527f207a65726f000000000000000000000000000000000000000000000000000000602082015250565b6000611dfe60258361188e565b9150611e0982611da2565b604082019050919050565b60006020820190508181036000830152611e2d81611df1565b9050919050565b7f45524332303a20617070726f76652066726f6d20746865207a65726f2061646460008201527f7265737300000000000000000000000000000000000000000000000000000000602082015250565b6000611e9060248361188e565b9150611e9b82611e34565b604082019050919050565b60006020820190508181036000830152611ebf81611e83565b9050919050565b7f45524332303a20617070726f766520746f20746865207a65726f20616464726560008201527f7373000000000000000000000000000000000000000000000000000000000000602082015250565b6000611f2260228361188e565b9150611f2d82611ec6565b604082019050919050565b60006020820190508181036000830152611f5181611f15565b9050919050565b7f45524332303a207472616e736665722066726f6d20746865207a65726f20616460008201527f6472657373000000000000000000000000000000000000000000000000000000602082015250565b6000611fb460258361188e565b9150611fbf82611f58565b604082019050919050565b60006020820190508181036000830152611fe381611fa7565b9050919050565b7f45524332303a207472616e7366657220746f20746865207a65726f206164647260008201527f6573730000000000000000000000000000000000000000000000000000000000602082015250565b600061204660238361188e565b915061205182611fea565b604082019050919050565b6000602082019050818103600083015261207581612039565b9050919050565b7f45524332303a207472616e7366657220616d6f756e742065786365656473206260008201527f616c616e63650000000000000000000000000000000000000000000000000000602082015250565b60006120d860268361188e565b91506120e38261207c565b604082019050919050565b60006020820190508181036000830152612107816120cb565b9050919050565b7f45524332303a206275726e2066726f6d20746865207a65726f2061646472657360008201527f7300000000000000000000000000000000000000000000000000000000000000602082015250565b600061216a60218361188e565b91506121758261210e565b604082019050919050565b600060208201905081810360008301526121998161215d565b9050919050565b7f45524332303a206275726e20616d6f756e7420657863656564732062616c616e60008201527f6365000000000000000000000000000000000000000000000000000000000000602082015250565b60006121fc60228361188e565b9150612207826121a0565b604082019050919050565b6000602082019050818103600083015261222b816121ef565b9050919050565b600061223d826119a1565b9150612248836119a1565b92508282101561225b5761225a611d1d565b5b828203905092915050565b7f4e6f74207061737420746865206d696e696d756d207374616b6520706572696f60008201527f6400000000000000000000000000000000000000000000000000000000000000602082015250565b60006122c260218361188e565b91506122cd82612266565b604082019050919050565b600060208201905081810360008301526122f1816122b5565b9050919050565b7f45524332303a206d696e7420746f20746865207a65726f206164647265737300600082015250565b600061232e601f8361188e565b9150612339826122f8565b602082019050919050565b6000602082019050818103600083015261235d81612321565b9050919050565b600061236f826119a1565b915061237a836119a1565b9250817fffffffffffffffffffffffffffffffffffffffffffffffffffffffffffffffff04831182151516156123b3576123b2611d1d565b5b828202905092915050565b7f4e487b7100000000000000000000000000000000000000000000000000000000600052601260045260246000fd5b60006123f8826119a1565b9150612403836119a1565b925082612413576124126123be565b5b82820490509291505056fea26469706673582212208bbed19d5e2058884e5fad31edeb6bfb109f93d53fdc7173264d2cfb9d160d6f64736f6c634300080a0033",
  "immutableReferences": {},
  "source": "// SPDX-License-Identifier: MIT\r\npragma solidity > 0.8.0;\r\n// pragma experimental ABIEncoderV2;\r\nimport \"@openzeppelin/contracts/token/ERC20/ERC20.sol\";\r\n\r\ncontract GTAGAMING is ERC20 {\r\n\r\n  uint256 private constant _DECIMALS = 18;\r\n\r\n  uint256 private leastStakePeriod = 3 days;\r\n\r\n  uint256 private TOTAL_SUPPLY = 600000000 * (10**_DECIMALS);\r\n\r\n  uint256 private _CIRCULATING_SUPPLY = TOTAL_SUPPLY / 4;\r\n\r\n  uint256 private _REWARD_SUPPLY = TOTAL_SUPPLY / 3;\r\n  \r\n  uint256 private ContractReward = 13 * (10**(_DECIMALS - 2));\r\n\r\n  constructor() ERC20(\"grandtheftgaming\", \"GTA\") {\r\n    _mint(msg.sender, TOTAL_SUPPLY);\r\n  }\r\n\r\n  function _address() public view returns (address) {\r\n    return payable(address(this));\r\n  }\r\n\r\n\r\n  function _circulatingSupply() public view returns (uint256) {\r\n    return _CIRCULATING_SUPPLY;\r\n  }\r\n\r\n  function _rewardSupply() public view returns (uint256) {\r\n    return _REWARD_SUPPLY;\r\n  }\r\n\r\n  function receive() external payable {\r\n    emit Transfer(msg.sender, address(this), msg.value);  \r\n  }\r\n\r\n  function getBalance() public view returns (uint256) {\r\n    return address(this).balance;\r\n  }\r\n\r\n  // represents a stake\r\n  struct Stake {\r\n    uint256 amount;\r\n    uint256 time;\r\n  }\r\n\r\n  function _isPastMinimumStakePeriod(address owner) private view returns (bool) {\r\n    require(_userHasStaked(owner));\r\n    Stake storage userStake = CurrentStakes[owner];\r\n    if(block.timestamp > userStake.time + leastStakePeriod) return true;\r\n    return false;\r\n  }\r\n\r\n  function _calculateReward(address owner) private view returns (uint256) {\r\n    require(_userHasStaked(owner));\r\n    Stake storage userStake = CurrentStakes[owner];\r\n    uint256 stakedAmount = userStake.amount;\r\n    uint256 stakedTime = (block.timestamp * 365 days)/ 6 seconds; // TODO change 100 days to userStake.time * block.timestamp\r\n    uint256 _reward = (stakedAmount/ContractReward) * stakedTime;\r\n    return _reward; \r\n  }\r\n\r\n  mapping(address => bool) StakedUsers;\r\n\r\n  mapping(address => Stake) CurrentStakes;\r\n  \r\n  // emitted when ever a user stakes into the smart contract\r\n  event Staked (address indexed owner, uint256 indexed amount, uint256 indexed time);\r\n  \r\n  // emitted when ever a user stakes into the smart contract\r\n  event Unstaked (address indexed owner, uint256 indexed amount, uint256 indexed time);\r\n\r\n  function _stake(address owner, uint256 amount) private returns (bool) {\r\n    bool hasUserStaked = _userHasStaked(owner);\r\n    if(hasUserStaked) {\r\n      Stake storage userStake = CurrentStakes[owner];\r\n      userStake.amount += amount;\r\n    } else {\r\n      CurrentStakes[owner] = Stake(amount, block.timestamp);\r\n      emit Staked(owner, amount, block.timestamp);\r\n      StakedUsers[owner] = true;\r\n    }\r\n    return true;\r\n  }\r\n\r\n  function _userHasStaked(address user) view private returns (bool) {\r\n    if (StakedUsers[user]) return true;\r\n    return false;\r\n  }\r\n\r\n  function _getTotalStakedAmout(address owner) view public returns (uint256) {\r\n    require(_userHasStaked(owner),\"You must stake your tokens first. To view your stakeBalance\");\r\n    Stake storage userStake = CurrentStakes[owner];\r\n    return userStake.amount;\r\n  }\r\n\r\n  function _getInitialStakeDate(address owner) view public returns (uint256) {\r\n    require(_userHasStaked(owner), \"You must stake your tokens first. To view your stakeBalance\");\r\n    Stake storage userStake = CurrentStakes[owner];\r\n    return userStake.time;\r\n  }\r\n\r\n  function _unstake(address user, uint256 amount) private returns (bool) {\r\n    require(_userHasStaked(user));\r\n    require(_isPastMinimumStakePeriod(user), \"Not past the minimum stake period\");\r\n    Stake storage userStake = CurrentStakes[user];\r\n    userStake.amount -= amount;\r\n    return true;\r\n  }\r\n\r\n\r\n  function stake(address owner, uint256 amount) public returns (bool) {\r\n    bool res = _stake(owner, amount);\r\n    if (res) {\r\n      _burn(owner, amount);\r\n      emit Staked(owner, amount, block.timestamp);\r\n      return true;\r\n    } else { \r\n      return false;\r\n    }\r\n  }\r\n\r\n  function unstake(address owner, uint256 amount) public returns (bool) {\r\n    bool res = _unstake(owner, amount);\r\n    if(res){\r\n      _mint(owner, amount);\r\n      emit Unstaked(owner, amount, block.timestamp);\r\n      return true;\r\n    } else {\r\n      return false;\r\n    }\r\n  }\r\n\r\n  function showReward(address owner) public view returns (uint256){\r\n    uint256 _Reward = _calculateReward(owner);\r\n    return _Reward;\r\n  }\r\n}  ",
  "sourcePath": "G:\\Crypto\\gta-token\\contracts\\GTAGAMING.sol",
  "compiler": {
    "name": "solc",
    "version": "0.8.10+commit.fc410830.Emscripten.clang"
  },
  "schemaVersion": "3.4.4",
  "updatedAt": "2022-03-09T20:10:27.255Z",
  "networkType": "ethereum",
  "devdoc": {
    "kind": "dev",
    "methods": {
      "allowance(address,address)": {
        "details": "See {IERC20-allowance}."
      },
      "approve(address,uint256)": {
        "details": "See {IERC20-approve}. Requirements: - `spender` cannot be the zero address."
      },
      "balanceOf(address)": {
        "details": "See {IERC20-balanceOf}."
      },
      "decimals()": {
        "details": "Returns the number of decimals used to get its user representation. For example, if `decimals` equals `2`, a balance of `505` tokens should be displayed to a user as `5.05` (`505 / 10 ** 2`). Tokens usually opt for a value of 18, imitating the relationship between Ether and Wei. This is the value {ERC20} uses, unless this function is overridden; NOTE: This information is only used for _display_ purposes: it in no way affects any of the arithmetic of the contract, including {IERC20-balanceOf} and {IERC20-transfer}."
      },
      "decreaseAllowance(address,uint256)": {
        "details": "Atomically decreases the allowance granted to `spender` by the caller. This is an alternative to {approve} that can be used as a mitigation for problems described in {IERC20-approve}. Emits an {Approval} event indicating the updated allowance. Requirements: - `spender` cannot be the zero address. - `spender` must have allowance for the caller of at least `subtractedValue`."
      },
      "increaseAllowance(address,uint256)": {
        "details": "Atomically increases the allowance granted to `spender` by the caller. This is an alternative to {approve} that can be used as a mitigation for problems described in {IERC20-approve}. Emits an {Approval} event indicating the updated allowance. Requirements: - `spender` cannot be the zero address."
      },
      "name()": {
        "details": "Returns the name of the token."
      },
      "symbol()": {
        "details": "Returns the symbol of the token, usually a shorter version of the name."
      },
      "totalSupply()": {
        "details": "See {IERC20-totalSupply}."
      },
      "transfer(address,uint256)": {
        "details": "See {IERC20-transfer}. Requirements: - `recipient` cannot be the zero address. - the caller must have a balance of at least `amount`."
      },
      "transferFrom(address,address,uint256)": {
        "details": "See {IERC20-transferFrom}. Emits an {Approval} event indicating the updated allowance. This is not required by the EIP. See the note at the beginning of {ERC20}. Requirements: - `sender` and `recipient` cannot be the zero address. - `sender` must have a balance of at least `amount`. - the caller must have allowance for ``sender``'s tokens of at least `amount`."
      }
    },
    "version": 1
  },
  "userdoc": {
    "kind": "user",
    "methods": {},
    "version": 1
  }
}