{
  "contractName": "Staking",
  "abi": [
    {
      "inputs": [],
      "stateMutability": "nonpayable",
      "type": "constructor"
    },
    {
      "anonymous": false,
      "inputs": [
        {
          "indexed": false,
          "internalType": "uint256",
          "name": "stakeAmount",
          "type": "uint256"
        },
        {
          "indexed": false,
          "internalType": "address",
          "name": "from",
          "type": "address"
        }
      ],
      "name": "NewStake",
      "type": "event"
    },
    {
      "anonymous": false,
      "inputs": [
        {
          "indexed": true,
          "internalType": "address",
          "name": "previousOwner",
          "type": "address"
        },
        {
          "indexed": true,
          "internalType": "address",
          "name": "newOwner",
          "type": "address"
        }
      ],
      "name": "OwnershipTransferred",
      "type": "event"
    },
    {
      "anonymous": false,
      "inputs": [],
      "name": "PotExhausted",
      "type": "event"
    },
    {
      "anonymous": false,
      "inputs": [
        {
          "indexed": false,
          "internalType": "uint256",
          "name": "newPot",
          "type": "uint256"
        }
      ],
      "name": "PotUpdated",
      "type": "event"
    },
    {
      "anonymous": false,
      "inputs": [
        {
          "indexed": false,
          "internalType": "uint256",
          "name": "stakeID",
          "type": "uint256"
        },
        {
          "indexed": false,
          "internalType": "uint256",
          "name": "amount",
          "type": "uint256"
        }
      ],
      "name": "StakeWithdraw",
      "type": "event"
    },
    {
      "anonymous": false,
      "inputs": [],
      "name": "machineStopped",
      "type": "event"
    },
    {
      "anonymous": false,
      "inputs": [
        {
          "indexed": false,
          "internalType": "address",
          "name": "account",
          "type": "address"
        },
        {
          "indexed": false,
          "internalType": "uint256",
          "name": "reward",
          "type": "uint256"
        }
      ],
      "name": "referralRewardSent",
      "type": "event"
    },
    {
      "anonymous": false,
      "inputs": [
        {
          "indexed": false,
          "internalType": "address",
          "name": "account",
          "type": "address"
        }
      ],
      "name": "rewardWithdrawed",
      "type": "event"
    },
    {
      "anonymous": false,
      "inputs": [],
      "name": "subscriptionStopped",
      "type": "event"
    },
    {
      "inputs": [],
      "name": "owner",
      "outputs": [
        {
          "internalType": "address",
          "name": "",
          "type": "address"
        }
      ],
      "stateMutability": "view",
      "type": "function"
    },
    {
      "inputs": [],
      "name": "renounceOwnership",
      "outputs": [],
      "stateMutability": "nonpayable",
      "type": "function"
    },
    {
      "inputs": [
        {
          "internalType": "address",
          "name": "newOwner",
          "type": "address"
        }
      ],
      "name": "transferOwnership",
      "outputs": [],
      "stateMutability": "nonpayable",
      "type": "function"
    },
    {
      "inputs": [
        {
          "internalType": "address",
          "name": "_tokenAddress",
          "type": "address"
        }
      ],
      "name": "setTokenAddress",
      "outputs": [],
      "stateMutability": "nonpayable",
      "type": "function"
    },
    {
      "inputs": [],
      "name": "isTokenSet",
      "outputs": [
        {
          "internalType": "bool",
          "name": "",
          "type": "bool"
        }
      ],
      "stateMutability": "view",
      "type": "function"
    },
    {
      "inputs": [],
      "name": "getTokenAddress",
      "outputs": [
        {
          "internalType": "address",
          "name": "",
          "type": "address"
        }
      ],
      "stateMutability": "view",
      "type": "function"
    },
    {
      "inputs": [
        {
          "internalType": "uint256",
          "name": "_amount",
          "type": "uint256"
        }
      ],
      "name": "depositPot",
      "outputs": [],
      "stateMutability": "nonpayable",
      "type": "function"
    },
    {
      "inputs": [
        {
          "internalType": "uint256",
          "name": "_amount",
          "type": "uint256"
        }
      ],
      "name": "returnPot",
      "outputs": [],
      "stateMutability": "nonpayable",
      "type": "function"
    },
    {
      "inputs": [],
      "name": "finalShutdown",
      "outputs": [],
      "stateMutability": "nonpayable",
      "type": "function"
    },
    {
      "inputs": [],
      "name": "getAllAccount",
      "outputs": [
        {
          "internalType": "address[]",
          "name": "",
          "type": "address[]"
        }
      ],
      "stateMutability": "view",
      "type": "function"
    },
    {
      "inputs": [],
      "name": "getPotentialWithdrawAmount",
      "outputs": [
        {
          "internalType": "uint256",
          "name": "",
          "type": "uint256"
        }
      ],
      "stateMutability": "view",
      "type": "function"
    },
    {
      "inputs": [
        {
          "internalType": "uint256",
          "name": "_amount",
          "type": "uint256"
        },
        {
          "internalType": "address",
          "name": "_referralAddress",
          "type": "address"
        }
      ],
      "name": "stakeToken",
      "outputs": [],
      "stateMutability": "nonpayable",
      "type": "function"
    },
    {
      "inputs": [
        {
          "internalType": "uint256",
          "name": "_stakeID",
          "type": "uint256"
        }
      ],
      "name": "returnTokens",
      "outputs": [
        {
          "internalType": "bool",
          "name": "",
          "type": "bool"
        }
      ],
      "stateMutability": "nonpayable",
      "type": "function"
    },
    {
      "inputs": [
        {
          "internalType": "uint256",
          "name": "_stakeID",
          "type": "uint256"
        }
      ],
      "name": "withdrawReward",
      "outputs": [
        {
          "internalType": "bool",
          "name": "",
          "type": "bool"
        }
      ],
      "stateMutability": "nonpayable",
      "type": "function"
    },
    {
      "inputs": [],
      "name": "withdrawReferralReward",
      "outputs": [
        {
          "internalType": "bool",
          "name": "",
          "type": "bool"
        }
      ],
      "stateMutability": "nonpayable",
      "type": "function"
    },
    {
      "inputs": [
        {
          "internalType": "uint256",
          "name": "_amount",
          "type": "uint256"
        }
      ],
      "name": "withdrawFromPot",
      "outputs": [
        {
          "internalType": "bool",
          "name": "",
          "type": "bool"
        }
      ],
      "stateMutability": "nonpayable",
      "type": "function"
    },
    {
      "inputs": [
        {
          "internalType": "uint256",
          "name": "_stakeID",
          "type": "uint256"
        }
      ],
      "name": "getCurrentStakeAmount",
      "outputs": [
        {
          "internalType": "uint256",
          "name": "",
          "type": "uint256"
        }
      ],
      "stateMutability": "view",
      "type": "function"
    },
    {
      "inputs": [],
      "name": "getTotalStakeAmount",
      "outputs": [
        {
          "internalType": "uint256",
          "name": "",
          "type": "uint256"
        }
      ],
      "stateMutability": "view",
      "type": "function"
    },
    {
      "inputs": [
        {
          "internalType": "uint256",
          "name": "_stakeID",
          "type": "uint256"
        }
      ],
      "name": "getStakeInfo",
      "outputs": [
        {
          "internalType": "uint256",
          "name": "",
          "type": "uint256"
        },
        {
          "internalType": "bool",
          "name": "",
          "type": "bool"
        },
        {
          "internalType": "uint256",
          "name": "",
          "type": "uint256"
        },
        {
          "internalType": "address",
          "name": "",
          "type": "address"
        },
        {
          "internalType": "uint256",
          "name": "",
          "type": "uint256"
        },
        {
          "internalType": "uint256",
          "name": "",
          "type": "uint256"
        }
      ],
      "stateMutability": "view",
      "type": "function"
    },
    {
      "inputs": [],
      "name": "getCurrentPot",
      "outputs": [
        {
          "internalType": "uint256",
          "name": "",
          "type": "uint256"
        }
      ],
      "stateMutability": "view",
      "type": "function"
    },
    {
      "inputs": [],
      "name": "getStakeCount",
      "outputs": [
        {
          "internalType": "uint256",
          "name": "",
          "type": "uint256"
        }
      ],
      "stateMutability": "view",
      "type": "function"
    },
    {
      "inputs": [],
      "name": "getActiveStakeCount",
      "outputs": [
        {
          "internalType": "uint256",
          "name": "",
          "type": "uint256"
        }
      ],
      "stateMutability": "view",
      "type": "function"
    },
    {
      "inputs": [],
      "name": "getReferralCount",
      "outputs": [
        {
          "internalType": "uint256",
          "name": "",
          "type": "uint256"
        }
      ],
      "stateMutability": "view",
      "type": "function"
    },
    {
      "inputs": [],
      "name": "getAccountReferral",
      "outputs": [
        {
          "internalType": "address[]",
          "name": "",
          "type": "address[]"
        }
      ],
      "stateMutability": "view",
      "type": "function"
    },
    {
      "inputs": [
        {
          "internalType": "uint256",
          "name": "_stakeID",
          "type": "uint256"
        }
      ],
      "name": "getAlreadyWithdrawedAmount",
      "outputs": [
        {
          "internalType": "uint256",
          "name": "",
          "type": "uint256"
        }
      ],
      "stateMutability": "view",
      "type": "function"
    },
    {
      "inputs": [],
      "name": "hasReferral",
      "outputs": [
        {
          "internalType": "bool",
          "name": "",
          "type": "bool"
        }
      ],
      "stateMutability": "view",
      "type": "function"
    },
    {
      "inputs": [],
      "name": "getMyReferral",
      "outputs": [
        {
          "internalType": "address",
          "name": "",
          "type": "address"
        }
      ],
      "stateMutability": "view",
      "type": "function"
    },
    {
      "inputs": [],
      "name": "getCurrentReferrals",
      "outputs": [
        {
          "internalType": "address[]",
          "name": "",
          "type": "address[]"
        }
      ],
      "stateMutability": "view",
      "type": "function"
    },
    {
      "inputs": [
        {
          "internalType": "address",
          "name": "customer",
          "type": "address"
        }
      ],
      "name": "calculateRewardReferral",
      "outputs": [
        {
          "internalType": "uint256",
          "name": "",
          "type": "uint256"
        }
      ],
      "stateMutability": "view",
      "type": "function"
    },
    {
      "inputs": [
        {
          "internalType": "address",
          "name": "_account",
          "type": "address"
        }
      ],
      "name": "calculateTotalRewardReferral",
      "outputs": [
        {
          "internalType": "uint256",
          "name": "",
          "type": "uint256"
        }
      ],
      "stateMutability": "view",
      "type": "function"
    },
    {
      "inputs": [],
      "name": "calculateTotalRewardReferral",
      "outputs": [
        {
          "internalType": "uint256",
          "name": "",
          "type": "uint256"
        }
      ],
      "stateMutability": "view",
      "type": "function"
    },
    {
      "inputs": [
        {
          "internalType": "address",
          "name": "customer",
          "type": "address"
        }
      ],
      "name": "getLowestStake",
      "outputs": [
        {
          "internalType": "uint256",
          "name": "",
          "type": "uint256"
        },
        {
          "internalType": "uint256",
          "name": "",
          "type": "uint256"
        }
      ],
      "stateMutability": "view",
      "type": "function"
    },
    {
      "inputs": [
        {
          "internalType": "uint256",
          "name": "_stakeID",
          "type": "uint256"
        }
      ],
      "name": "calculateRewardToWithdraw",
      "outputs": [
        {
          "internalType": "uint256",
          "name": "",
          "type": "uint256"
        }
      ],
      "stateMutability": "view",
      "type": "function"
    },
    {
      "inputs": [
        {
          "internalType": "uint256",
          "name": "_stakeID",
          "type": "uint256"
        }
      ],
      "name": "calculateCompoundInterest",
      "outputs": [
        {
          "internalType": "uint256",
          "name": "",
          "type": "uint256"
        }
      ],
      "stateMutability": "view",
      "type": "function"
    },
    {
      "inputs": [
        {
          "internalType": "uint256",
          "name": "_stakeID",
          "type": "uint256"
        }
      ],
      "name": "calculatePeriods",
      "outputs": [
        {
          "internalType": "uint256",
          "name": "",
          "type": "uint256"
        }
      ],
      "stateMutability": "view",
      "type": "function"
    },
    {
      "inputs": [
        {
          "internalType": "address",
          "name": "_account",
          "type": "address"
        },
        {
          "internalType": "uint256",
          "name": "_stakeID",
          "type": "uint256"
        }
      ],
      "name": "calculateAccountStakePeriods",
      "outputs": [
        {
          "internalType": "uint256",
          "name": "",
          "type": "uint256"
        }
      ],
      "stateMutability": "view",
      "type": "function"
    },
    {
      "inputs": [],
      "name": "getMachineState",
      "outputs": [
        {
          "internalType": "uint256",
          "name": "",
          "type": "uint256"
        }
      ],
      "stateMutability": "view",
      "type": "function"
    },
    {
      "inputs": [],
      "name": "isSubscriptionEnded",
      "outputs": [
        {
          "internalType": "bool",
          "name": "",
          "type": "bool"
        }
      ],
      "stateMutability": "view",
      "type": "function"
    },
    {
      "inputs": [],
      "name": "isMachineStopped",
      "outputs": [
        {
          "internalType": "bool",
          "name": "",
          "type": "bool"
        }
      ],
      "stateMutability": "view",
      "type": "function"
    },
    {
      "inputs": [],
      "name": "getOwner",
      "outputs": [
        {
          "internalType": "address",
          "name": "",
          "type": "address"
        }
      ],
      "stateMutability": "view",
      "type": "function"
    }
  ],
  "bytecode": "0x60806040523480156200001157600080fd5b506200003262000026620000b060201b60201c565b620000b860201b60201c565b6001808190555060006005819055506012600a62000051919062000309565b6302faf0806200006291906200035a565b6006819055506000600360006101000a81548173ffffffffffffffffffffffffffffffffffffffff021916908373ffffffffffffffffffffffffffffffffffffffff160217905550620003bb565b600033905090565b60008060009054906101000a900473ffffffffffffffffffffffffffffffffffffffff169050816000806101000a81548173ffffffffffffffffffffffffffffffffffffffff021916908373ffffffffffffffffffffffffffffffffffffffff1602179055508173ffffffffffffffffffffffffffffffffffffffff168173ffffffffffffffffffffffffffffffffffffffff167f8be0079c531659141344cd1fd0a4f28419497f9722a3daafe3b4186f6b6457e060405160405180910390a35050565b7f4e487b7100000000000000000000000000000000000000000000000000000000600052601160045260246000fd5b60008160011c9050919050565b6000808291508390505b60018511156200020a57808604811115620001e257620001e16200017c565b5b6001851615620001f25780820291505b80810290506200020285620001ab565b9450620001c2565b94509492505050565b600082620002255760019050620002f8565b81620002355760009050620002f8565b81600181146200024e576002811462000259576200028f565b6001915050620002f8565b60ff8411156200026e576200026d6200017c565b5b8360020a9150848211156200028857620002876200017c565b5b50620002f8565b5060208310610133831016604e8410600b8410161715620002c95782820a905083811115620002c357620002c26200017c565b5b620002f8565b620002d88484846001620001b8565b92509050818404811115620002f257620002f16200017c565b5b81810290505b9392505050565b6000819050919050565b60006200031682620002ff565b91506200032383620002ff565b9250620003527fffffffffffffffffffffffffffffffffffffffffffffffffffffffffffffffff848462000213565b905092915050565b60006200036782620002ff565b91506200037483620002ff565b9250817fffffffffffffffffffffffffffffffffffffffffffffffffffffffffffffffff0483118215151615620003b057620003af6200017c565b5b828202905092915050565b61533680620003cb6000396000f3fe608060405234801561001057600080fd5b50600436106102485760003560e01c80637ee1eec81161013b578063b513bf5d116100b8578063e292fb961161007c578063e292fb9614610703578063e7eed1f714610721578063ea63f5c91461073f578063ebe70dee1461076f578063f2fde38b1461079f57610248565b8063b513bf5d1461065f578063b6b852431461067d578063c1a62abd14610699578063d33ddce4146106b5578063d953db9e146106d357610248565b80639848970a116100ff5780639848970a146105b95780639a38f0f4146105e95780639dc5368d146106075780639ee30600146106255780639ee7138c1461064157610248565b80637ee1eec814610513578063893d20e81461051d5780638da5cb5b1461053b57806392898bc41461055957806392faf9ff1461058957610248565b80633743bf9c116101c95780634fe309701161018d5780634fe309701461046c57806351e7630d1461048a578063523a3f08146104a85780636e225934146104d8578063715018a61461050957610248565b80633743bf9c146103b25780633ae1786f146103d05780634347e7d3146104005780634ce1cf0c1461041e5780634d86e99a1461044e57610248565b80631811878711610210578063181187871461031e5780631f7275e91461033c57806326a4e8d21461035a5780632e4ab48a14610376578063314982491461039457610248565b806306be96421461024d578063098134821461027d57806310fe9ae8146102b2578063128e1af0146102d057806314c2a1bc14610300575b600080fd5b610267600480360381019061026291906141b3565b6107bb565b60405161027491906141ef565b60405180910390f35b610297600480360381019061029291906141b3565b610827565b6040516102a996959493929190614266565b60405180910390f35b6102ba61092c565b6040516102c791906142c7565b60405180910390f35b6102ea60048036038101906102e591906141b3565b610956565b6040516102f791906142e2565b60405180910390f35b610308610a11565b60405161031591906141ef565b60405180910390f35b610326610c22565b60405161033391906142e2565b60405180910390f35b610344610fee565b60405161035191906142e2565b60405180910390f35b610374600480360381019061036f9190614329565b61100b565b005b61037e611176565b60405161038b91906141ef565b60405180910390f35b61039c6111c0565b6040516103a991906141ef565b60405180910390f35b6103ba6112ee565b6040516103c79190614414565b60405180910390f35b6103ea60048036038101906103e591906141b3565b611333565b6040516103f791906142e2565b60405180910390f35b6104086116ca565b60405161041591906141ef565b60405180910390f35b61043860048036038101906104339190614436565b611714565b60405161044591906141ef565b60405180910390f35b610456611809565b6040516104639190614414565b60405180910390f35b6104746118d4565b60405161048191906142e2565b60405180910390f35b610492611a1f565b60405161049f91906141ef565b60405180910390f35b6104c260048036038101906104bd91906141b3565b611b13565b6040516104cf91906142e2565b60405180910390f35b6104f260048036038101906104ed9190614329565b611e6a565b604051610500929190614476565b60405180910390f35b61051161206c565b005b61051b6120f4565b005b6105256122ba565b60405161053291906142c7565b60405180910390f35b6105436122c9565b60405161055091906142c7565b60405180910390f35b610573600480360381019061056e91906141b3565b6122f2565b60405161058091906141ef565b60405180910390f35b6105a3600480360381019061059e91906141b3565b612433565b6040516105b091906141ef565b60405180910390f35b6105d360048036038101906105ce9190614329565b612527565b6040516105e091906141ef565b60405180910390f35b6105f1612631565b6040516105fe91906142e2565b60405180910390f35b61060f612690565b60405161061c9190614414565b60405180910390f35b61063f600480360381019061063a919061449f565b61279a565b005b610649612c08565b60405161065691906142e2565b60405180910390f35b610667612ca2565b60405161067491906141ef565b60405180910390f35b610697600480360381019061069291906141b3565b612daa565b005b6106b360048036038101906106ae91906141b3565b6130a1565b005b6106bd613342565b6040516106ca91906142c7565b60405180910390f35b6106ed60048036038101906106e891906141b3565b6133fc565b6040516106fa91906141ef565b60405180910390f35b61070b61352e565b60405161071891906141ef565b60405180910390f35b610729613538565b60405161073691906141ef565b60405180910390f35b610759600480360381019061075491906141b3565b613542565b60405161076691906141ef565b60405180910390f35b61078960048036038101906107849190614329565b61363f565b60405161079691906141ef565b60405180910390f35b6107b960048036038101906107b49190614329565b613745565b005b6000600260003373ffffffffffffffffffffffffffffffffffffffff1673ffffffffffffffffffffffffffffffffffffffff168152602001908152602001600020828154811061080e5761080d6144df565b5b9060005260206000209060040201600301549050919050565b6000806000806000806000600260003373ffffffffffffffffffffffffffffffffffffffff1673ffffffffffffffffffffffffffffffffffffffff1681526020019081526020016000208881548110610883576108826144df565b5b906000526020600020906004020160405180608001604052908160008201548152602001600182015481526020016002820160009054906101000a900460ff16151515158152602001600382015481525050905060006108e2896133fc565b905060006108f3836000015161383d565b905060006108ff613342565b90508360000151846040015185602001518386869950995099509950995099505050505091939550919395565b6000600360009054906101000a900473ffffffffffffffffffffffffffffffffffffffff16905090565b60006002600154141561099e576040517f08c379a00000000000000000000000000000000000000000000000000000000081526004016109959061456b565b60405180910390fd5b60026001819055506005548211156109e5577f67ed6f55aeca4bd969e4caf8ffe6d777edf0434bab6b87d04490ba3b9c9926b860405160405180910390a160009050610a05565b6109fa8260055461387290919063ffffffff16565b600581905550600190505b60018081905550919050565b60008073ffffffffffffffffffffffffffffffffffffffff16600360009054906101000a900473ffffffffffffffffffffffffffffffffffffffff1673ffffffffffffffffffffffffffffffffffffffff161415610aa4576040517f08c379a0000000000000000000000000000000000000000000000000000000008152600401610a9b906145d7565b60405180910390fd5b6000600260003373ffffffffffffffffffffffffffffffffffffffff1673ffffffffffffffffffffffffffffffffffffffff168152602001908152602001600020805480602002602001604051908101604052809291908181526020016000905b82821015610b70578382906000526020600020906004020160405180608001604052908160008201548152602001600182015481526020016002820160009054906101000a900460ff1615151515815260200160038201548152505081526020019060010190610b05565b5050505090506000600260003373ffffffffffffffffffffffffffffffffffffffff1673ffffffffffffffffffffffffffffffffffffffff16815260200190815260200160002080549050905060008080600090505b83811015610c1757848181518110610be157610be06144df565b5b6020026020010151600001519150610c02828461388890919063ffffffff16565b92508080610c0f90614626565b915050610bc6565b508194505050505090565b600060026001541415610c6a576040517f08c379a0000000000000000000000000000000000000000000000000000000008152600401610c619061456b565b60405180910390fd5b60026001819055506000600960003373ffffffffffffffffffffffffffffffffffffffff1673ffffffffffffffffffffffffffffffffffffffff1681526020019081526020016000208054905090506000805b82811015610e17576000600960003373ffffffffffffffffffffffffffffffffffffffff1673ffffffffffffffffffffffffffffffffffffffff1681526020019081526020016000208281548110610d1857610d176144df565b5b9060005260206000200160009054906101000a900473ffffffffffffffffffffffffffffffffffffffff1690506000610d508261363f565b9050610d65818561388890919063ffffffff16565b9350610dbc81600a60008573ffffffffffffffffffffffffffffffffffffffff1673ffffffffffffffffffffffffffffffffffffffff1681526020019081526020016000206001015461388890919063ffffffff16565b600a60008473ffffffffffffffffffffffffffffffffffffffff1673ffffffffffffffffffffffffffffffffffffffff1681526020019081526020016000206001018190555050508080610e0f90614626565b915050610cbd565b50610e218161389e565b610e60576040517f08c379a0000000000000000000000000000000000000000000000000000000008152600401610e57906146bb565b60405180910390fd5b600554811115610ea5576040517f08c379a0000000000000000000000000000000000000000000000000000000008152600401610e9c90614727565b60405180910390fd5b610eba8160055461387290919063ffffffff16565b600581905550600460009054906101000a900473ffffffffffffffffffffffffffffffffffffffff1673ffffffffffffffffffffffffffffffffffffffff1663a9059cbb33836040518363ffffffff1660e01b8152600401610f1d929190614747565b6020604051808303816000875af1158015610f3c573d6000803e3d6000fd5b505050506040513d601f19601f82011682018060405250810190610f60919061479c565b15610fa3577f61d4848e7db08e721dc597a2b0071f398c6a28b3715466955c21c7b5108d6d5c3382604051610f96929190614747565b60405180910390a1610fde565b6040517f08c379a0000000000000000000000000000000000000000000000000000000008152600401610fd590614815565b60405180910390fd5b6001925050506001808190555090565b60008060065411156110035760019050611008565b600090505b90565b6110136138d8565b73ffffffffffffffffffffffffffffffffffffffff166110316122c9565b73ffffffffffffffffffffffffffffffffffffffff1614611087576040517f08c379a000000000000000000000000000000000000000000000000000000000815260040161107e90614881565b60405180910390fd5b611090816138e0565b6110cf576040517f08c379a00000000000000000000000000000000000000000000000000000000081526004016110c690614913565b60405180910390fd5b80600360006101000a81548173ffffffffffffffffffffffffffffffffffffffff021916908373ffffffffffffffffffffffffffffffffffffffff160217905550600360009054906101000a900473ffffffffffffffffffffffffffffffffffffffff16600460006101000a81548173ffffffffffffffffffffffffffffffffffffffff021916908373ffffffffffffffffffffffffffffffffffffffff16021790555050565b6000600260003373ffffffffffffffffffffffffffffffffffffffff1673ffffffffffffffffffffffffffffffffffffffff16815260200190815260200160002080549050905090565b60006111ca6138d8565b73ffffffffffffffffffffffffffffffffffffffff166111e86122c9565b73ffffffffffffffffffffffffffffffffffffffff161461123e576040517f08c379a000000000000000000000000000000000000000000000000000000000815260040161123590614881565b60405180910390fd5b6000600b8054905090506000805b828110156112e5576000600b828154811061126a576112696144df565b5b9060005260206000200160009054906101000a900473ffffffffffffffffffffffffffffffffffffffff1690506112b26112a382612527565b8461388890919063ffffffff16565b92506112cf6112c0826138f3565b8461388890919063ffffffff16565b92505080806112dd90614626565b91505061124c565b50809250505090565b6060600960003373ffffffffffffffffffffffffffffffffffffffff1673ffffffffffffffffffffffffffffffffffffffff1681526020019081526020016000205090565b60006002600154141561137b576040517f08c379a00000000000000000000000000000000000000000000000000000000081526004016113729061456b565b60405180910390fd5b60026001819055506000600260003373ffffffffffffffffffffffffffffffffffffffff1673ffffffffffffffffffffffffffffffffffffffff16815260200190815260200160002083815481106113d6576113d56144df565b5b906000526020600020906004020160405180608001604052908160008201548152602001600182015481526020016002820160009054906101000a900460ff161515151581526020016003820154815250509050600015158160400151151514611475576040517f08c379a000000000000000000000000000000000000000000000000000000000815260040161146c9061497f565b60405180910390fd5b60008160000151905060006114898261383d565b905060006114a0828461387290919063ffffffff16565b905060006114b7828561387290919063ffffffff16565b90506114c28161389e565b611501576040517f08c379a00000000000000000000000000000000000000000000000000000000081526004016114f8906149eb565b60405180910390fd5b6115168360055461388890919063ffffffff16565b6005819055506001600260003373ffffffffffffffffffffffffffffffffffffffff1673ffffffffffffffffffffffffffffffffffffffff168152602001908152602001600020888154811061156f5761156e6144df565b5b906000526020600020906004020160020160006101000a81548160ff021916908315150217905550600460009054906101000a900473ffffffffffffffffffffffffffffffffffffffff1673ffffffffffffffffffffffffffffffffffffffff1663a9059cbb33846040518363ffffffff1660e01b81526004016115f4929190614747565b6020604051808303816000875af1158015611613573d6000803e3d6000fd5b505050506040513d601f19601f82011682018060405250810190611637919061479c565b1561167a577fa410544f83eadf8c1b5ed87c43259151da8c2dcaace26a8441a95e7770d7240a878360405161166d929190614476565b60405180910390a16116b5565b6040517f08c379a00000000000000000000000000000000000000000000000000000000081526004016116ac90614815565b60405180910390fd5b60019550505050505060018081905550919050565b6000600960003373ffffffffffffffffffffffffffffffffffffffff1673ffffffffffffffffffffffffffffffffffffffff16815260200190815260200160002080549050905090565b600080600260008573ffffffffffffffffffffffffffffffffffffffff1673ffffffffffffffffffffffffffffffffffffffff1681526020019081526020016000208381548110611768576117676144df565b5b906000526020600020906004020160405180608001604052908160008201548152602001600182015481526020016002820160009054906101000a900460ff161515151581526020016003820154815250509050600081602001519050600042905060006117df838361387290919063ffffffff16565b905060006117f96201518083613a9290919063ffffffff16565b9050809550505050505092915050565b6060600960003373ffffffffffffffffffffffffffffffffffffffff1673ffffffffffffffffffffffffffffffffffffffff1681526020019081526020016000208054806020026020016040519081016040528092919081815260200182805480156118ca57602002820191906000526020600020905b8160009054906101000a900473ffffffffffffffffffffffffffffffffffffffff1673ffffffffffffffffffffffffffffffffffffffff1681526020019060010190808311611880575b5050505050905090565b600080600a60003373ffffffffffffffffffffffffffffffffffffffff1673ffffffffffffffffffffffffffffffffffffffff1681526020019081526020016000206040518060400160405290816000820160009054906101000a900473ffffffffffffffffffffffffffffffffffffffff1673ffffffffffffffffffffffffffffffffffffffff1673ffffffffffffffffffffffffffffffffffffffff1681526020016001820154815250509050600073ffffffffffffffffffffffffffffffffffffffff16816000015173ffffffffffffffffffffffffffffffffffffffff1614806119f25750600173ffffffffffffffffffffffffffffffffffffffff16816000015173ffffffffffffffffffffffffffffffffffffffff16145b15611a16576000816020015114611a0c57611a0b614a0b565b5b6000915050611a1c565b60019150505b90565b600080600260003373ffffffffffffffffffffffffffffffffffffffff1673ffffffffffffffffffffffffffffffffffffffff1681526020019081526020016000208054905090506000805b82811015611b0a57600260003373ffffffffffffffffffffffffffffffffffffffff1673ffffffffffffffffffffffffffffffffffffffff1681526020019081526020016000208181548110611ac457611ac36144df565b5b906000526020600020906004020160020160009054906101000a900460ff16611af757600182611af49190614a3a565b91505b8080611b0290614626565b915050611a6b565b50809250505090565b600060026001541415611b5b576040517f08c379a0000000000000000000000000000000000000000000000000000000008152600401611b529061456b565b60405180910390fd5b60026001819055506000600260003373ffffffffffffffffffffffffffffffffffffffff1673ffffffffffffffffffffffffffffffffffffffff1681526020019081526020016000208381548110611bb657611bb56144df565b5b906000526020600020906004020160405180608001604052908160008201548152602001600182015481526020016002820160009054906101000a900460ff1615151515815260200160038201548152505090506000611c15846133fc565b9050611c208161389e565b611c5f576040517f08c379a0000000000000000000000000000000000000000000000000000000008152600401611c5690614adc565b60405180910390fd5b600554811115611ca4576040517f08c379a0000000000000000000000000000000000000000000000000000000008152600401611c9b90614727565b60405180910390fd5b611cb98160055461387290919063ffffffff16565b600581905550611cd681836060015161388890919063ffffffff16565b600260003373ffffffffffffffffffffffffffffffffffffffff1673ffffffffffffffffffffffffffffffffffffffff1681526020019081526020016000208581548110611d2757611d266144df565b5b906000526020600020906004020160030181905550600460009054906101000a900473ffffffffffffffffffffffffffffffffffffffff1673ffffffffffffffffffffffffffffffffffffffff1663a9059cbb33836040518363ffffffff1660e01b8152600401611d99929190614747565b6020604051808303816000875af1158015611db8573d6000803e3d6000fd5b505050506040513d601f19601f82011682018060405250810190611ddc919061479c565b15611e1d577fa4b06025edc86026e2c30cfa971a842c3c847db9729ad23b444e9c92ef5a26c833604051611e1091906142c7565b60405180910390a1611e58565b6040517f08c379a0000000000000000000000000000000000000000000000000000000008152600401611e4f90614815565b60405180910390fd5b60019250505060018081905550919050565b6000806000600260008573ffffffffffffffffffffffffffffffffffffffff1673ffffffffffffffffffffffffffffffffffffffff16815260200190815260200160002080549050905060006012600a611ec49190614c2f565b620186a0611ed29190614c7a565b905060008060005b848110156120465783600260008a73ffffffffffffffffffffffffffffffffffffffff1673ffffffffffffffffffffffffffffffffffffffff1681526020019081526020016000208281548110611f3457611f336144df565b5b9060005260206000209060040201600001541161203257600260008973ffffffffffffffffffffffffffffffffffffffff1673ffffffffffffffffffffffffffffffffffffffff1681526020019081526020016000208181548110611f9c57611f9b6144df565b5b906000526020600020906004020160020160009054906101000a900460ff1615611fc557612033565b600260008973ffffffffffffffffffffffffffffffffffffffff1673ffffffffffffffffffffffffffffffffffffffff1681526020019081526020016000208181548110612016576120156144df565b5b9060005260206000209060040201600001549350809250600191505b5b808061203e90614626565b915050611eda565b508061205c576000809550955050505050612067565b828295509550505050505b915091565b6120746138d8565b73ffffffffffffffffffffffffffffffffffffffff166120926122c9565b73ffffffffffffffffffffffffffffffffffffffff16146120e8576040517f08c379a00000000000000000000000000000000000000000000000000000000081526004016120df90614881565b60405180910390fd5b6120f26000613aa8565b565b6120fc6138d8565b73ffffffffffffffffffffffffffffffffffffffff1661211a6122c9565b73ffffffffffffffffffffffffffffffffffffffff1614612170576040517f08c379a000000000000000000000000000000000000000000000000000000000815260040161216790614881565b60405180910390fd5b600260015414156121b6576040517f08c379a00000000000000000000000000000000000000000000000000000000081526004016121ad9061456b565b60405180910390fd5b600260018190555060006121c8613b6c565b9050600460009054906101000a900473ffffffffffffffffffffffffffffffffffffffff1673ffffffffffffffffffffffffffffffffffffffff1663a9059cbb6122106122c9565b836040518363ffffffff1660e01b815260040161222e929190614747565b6020604051808303816000875af115801561224d573d6000803e3d6000fd5b505050506040513d601f19601f82011682018060405250810190612271919061479c565b6122b0576040517f08c379a00000000000000000000000000000000000000000000000000000000081526004016122a790614815565b60405180910390fd5b5060018081905550565b60006122c46122c9565b905090565b60008060009054906101000a900473ffffffffffffffffffffffffffffffffffffffff16905090565b600080600260003373ffffffffffffffffffffffffffffffffffffffff1673ffffffffffffffffffffffffffffffffffffffff1681526020019081526020016000208381548110612346576123456144df565b5b906000526020600020906004020160405180608001604052908160008201548152602001600182015481526020016002820160009054906101000a900460ff16151515158152602001600382015481525050905060006123a584612433565b9050600082600001519050600081905060005b838110156124155760006123ea60646123dc61014d86613c0f90919063ffffffff16565b613a9290919063ffffffff16565b90506123ff818461388890919063ffffffff16565b925050808061240d90614626565b9150506123b8565b508181101561242757612426614a0b565b5b80945050505050919050565b600080600260003373ffffffffffffffffffffffffffffffffffffffff1673ffffffffffffffffffffffffffffffffffffffff1681526020019081526020016000208381548110612487576124866144df565b5b906000526020600020906004020160405180608001604052908160008201548152602001600182015481526020016002820160009054906101000a900460ff161515151581526020016003820154815250509050600081602001519050600042905060006124fe838361387290919063ffffffff16565b905060006125186201518083613a9290919063ffffffff16565b90508095505050505050919050565b600080600960008473ffffffffffffffffffffffffffffffffffffffff1673ffffffffffffffffffffffffffffffffffffffff1681526020019081526020016000208054905090506000805b8281101561262657612611612602600960008873ffffffffffffffffffffffffffffffffffffffff1673ffffffffffffffffffffffffffffffffffffffff16815260200190815260200160002083815481106125d2576125d16144df565b5b9060005260206000200160009054906101000a900473ffffffffffffffffffffffffffffffffffffffff1661363f565b8361388890919063ffffffff16565b9150808061261e90614626565b915050612573565b508092505050919050565b60006012600a6126419190614c2f565b6302625a006126509190614c7a565b6012600a61265e9190614c2f565b6302faf08061266d9190614c7a565b6126779190614cd4565b60065410612688576000905061268d565b600190505b90565b606061269a6138d8565b73ffffffffffffffffffffffffffffffffffffffff166126b86122c9565b73ffffffffffffffffffffffffffffffffffffffff161461270e576040517f08c379a000000000000000000000000000000000000000000000000000000000815260040161270590614881565b60405180910390fd5b600b80548060200260200160405190810160405280929190818152602001828054801561279057602002820191906000526020600020905b8160009054906101000a900473ffffffffffffffffffffffffffffffffffffffff1673ffffffffffffffffffffffffffffffffffffffff1681526020019060010190808311612746575b5050505050905090565b600260015414156127e0576040517f08c379a00000000000000000000000000000000000000000000000000000000081526004016127d79061456b565b60405180910390fd5b6002600181905550600073ffffffffffffffffffffffffffffffffffffffff16600360009054906101000a900473ffffffffffffffffffffffffffffffffffffffff1673ffffffffffffffffffffffffffffffffffffffff16141561287a576040517f08c379a0000000000000000000000000000000000000000000000000000000008152600401612871906145d7565b60405180910390fd5b6012600a6128889190614c2f565b600a6128949190614c7a565b8210156128d6576040517f08c379a00000000000000000000000000000000000000000000000000000000081526004016128cd90614d7a565b60405180910390fd5b6012600a6128e49190614c2f565b620186a06128f29190614c7a565b821115612934576040517f08c379a000000000000000000000000000000000000000000000000000000000815260040161292b90614e0c565b60405180910390fd5b61293c612631565b1561297c576040517f08c379a000000000000000000000000000000000000000000000000000000000815260040161297390614e78565b60405180910390fd5b600033905061298961411e565b838160000181815250506000816040019015159081151581525050428160200181815250506000816060018181525050600260008373ffffffffffffffffffffffffffffffffffffffff1673ffffffffffffffffffffffffffffffffffffffff168152602001908152602001600020819080600181540180825580915050600190039060005260206000209060040201600090919091909150600082015181600001556020820151816001015560408201518160020160006101000a81548160ff021916908315150217905550606082015181600301555050612a6a6118d4565b612a7857612a7783613c25565b5b600b339080600181540180825580915050600190039060005260206000200160009091909190916101000a81548173ffffffffffffffffffffffffffffffffffffffff021916908373ffffffffffffffffffffffffffffffffffffffff160217905550600460009054906101000a900473ffffffffffffffffffffffffffffffffffffffff1673ffffffffffffffffffffffffffffffffffffffff166323b872dd3330876040518463ffffffff1660e01b8152600401612b3a93929190614e98565b6020604051808303816000875af1158015612b59573d6000803e3d6000fd5b505050506040513d601f19601f82011682018060405250810190612b7d919061479c565b15612bc0577f1fb6e3d7cae02b590e0aeed7ed3fd02a558811be73cdea80d1b42a0970b8b81b8484604051612bb3929190614ecf565b60405180910390a1612bfb565b6040517f08c379a0000000000000000000000000000000000000000000000000000000008152600401612bf290614815565b60405180910390fd5b5050600180819055505050565b60008073ffffffffffffffffffffffffffffffffffffffff16600360009054906101000a900473ffffffffffffffffffffffffffffffffffffffff1673ffffffffffffffffffffffffffffffffffffffff161415612c9b576040517f08c379a0000000000000000000000000000000000000000000000000000000008152600401612c9290614f6a565b60405180910390fd5b6001905090565b600080600960003373ffffffffffffffffffffffffffffffffffffffff1673ffffffffffffffffffffffffffffffffffffffff1681526020019081526020016000208054905090506000805b82811015612da157612d8c612d7d600960003373ffffffffffffffffffffffffffffffffffffffff1673ffffffffffffffffffffffffffffffffffffffff1681526020019081526020016000208381548110612d4d57612d4c6144df565b5b9060005260206000200160009054906101000a900473ffffffffffffffffffffffffffffffffffffffff1661363f565b8361388890919063ffffffff16565b91508080612d9990614626565b915050612cee565b50809250505090565b612db26138d8565b73ffffffffffffffffffffffffffffffffffffffff16612dd06122c9565b73ffffffffffffffffffffffffffffffffffffffff1614612e26576040517f08c379a0000000000000000000000000000000000000000000000000000000008152600401612e1d90614881565b60405180910390fd5b60026001541415612e6c576040517f08c379a0000000000000000000000000000000000000000000000000000000008152600401612e639061456b565b60405180910390fd5b6002600181905550600073ffffffffffffffffffffffffffffffffffffffff16600360009054906101000a900473ffffffffffffffffffffffffffffffffffffffff1673ffffffffffffffffffffffffffffffffffffffff161415612f06576040517f08c379a0000000000000000000000000000000000000000000000000000000008152600401612efd90614f6a565b60405180910390fd5b6000612f1d8260055461387290919063ffffffff16565b1015612f5e576040517f08c379a0000000000000000000000000000000000000000000000000000000008152600401612f5590614fd6565b60405180910390fd5b612f738160055461387290919063ffffffff16565b600581905550600460009054906101000a900473ffffffffffffffffffffffffffffffffffffffff1673ffffffffffffffffffffffffffffffffffffffff1663a9059cbb33836040518363ffffffff1660e01b8152600401612fd6929190614747565b6020604051808303816000875af1158015612ff5573d6000803e3d6000fd5b505050506040513d601f19601f82011682018060405250810190613019919061479c565b1561305c577f2ba2169cd2502a6cc4fd55f87f2dcbceef588b593aa4fdc883d4fc62e65ed6a960055460405161304f91906141ef565b60405180910390a1613097565b6040517f08c379a000000000000000000000000000000000000000000000000000000000815260040161308e90615042565b60405180910390fd5b6001808190555050565b6130a96138d8565b73ffffffffffffffffffffffffffffffffffffffff166130c76122c9565b73ffffffffffffffffffffffffffffffffffffffff161461311d576040517f08c379a000000000000000000000000000000000000000000000000000000000815260040161311490614881565b60405180910390fd5b60026001541415613163576040517f08c379a000000000000000000000000000000000000000000000000000000000815260040161315a9061456b565b60405180910390fd5b6002600181905550600073ffffffffffffffffffffffffffffffffffffffff16600360009054906101000a900473ffffffffffffffffffffffffffffffffffffffff1673ffffffffffffffffffffffffffffffffffffffff1614156131fd576040517f08c379a00000000000000000000000000000000000000000000000000000000081526004016131f490614f6a565b60405180910390fd5b6132128160055461388890919063ffffffff16565b600581905550600460009054906101000a900473ffffffffffffffffffffffffffffffffffffffff1673ffffffffffffffffffffffffffffffffffffffff166323b872dd3330846040518463ffffffff1660e01b815260040161327793929190614e98565b6020604051808303816000875af1158015613296573d6000803e3d6000fd5b505050506040513d601f19601f820116820180604052508101906132ba919061479c565b156132fd577f2ba2169cd2502a6cc4fd55f87f2dcbceef588b593aa4fdc883d4fc62e65ed6a96005546040516132f091906141ef565b60405180910390a1613338565b6040517f08c379a000000000000000000000000000000000000000000000000000000000815260040161332f90615042565b60405180910390fd5b6001808190555050565b600080600a60003373ffffffffffffffffffffffffffffffffffffffff1673ffffffffffffffffffffffffffffffffffffffff1681526020019081526020016000206040518060400160405290816000820160009054906101000a900473ffffffffffffffffffffffffffffffffffffffff1673ffffffffffffffffffffffffffffffffffffffff1673ffffffffffffffffffffffffffffffffffffffff1681526020016001820154815250509050806000015191505090565b600080600260003373ffffffffffffffffffffffffffffffffffffffff1673ffffffffffffffffffffffffffffffffffffffff16815260200190815260200160002083815481106134505761344f6144df565b5b906000526020600020906004020160405180608001604052908160008201548152602001600182015481526020016002820160009054906101000a900460ff16151515158152602001600382015481525050905060008160000151905060008260600151905060006134c186612433565b905060006134da61014d85613c0f90919063ffffffff16565b90506000613506620186a06134f88585613c0f90919063ffffffff16565b613a9290919063ffffffff16565b9050600061351d858361387290919063ffffffff16565b905080975050505050505050919050565b6000600654905090565b6000600554905090565b60008073ffffffffffffffffffffffffffffffffffffffff16600360009054906101000a900473ffffffffffffffffffffffffffffffffffffffff1673ffffffffffffffffffffffffffffffffffffffff1614156135d5576040517f08c379a00000000000000000000000000000000000000000000000000000000081526004016135cc906145d7565b60405180910390fd5b600260003373ffffffffffffffffffffffffffffffffffffffff1673ffffffffffffffffffffffffffffffffffffffff1681526020019081526020016000208281548110613626576136256144df565b5b9060005260206000209060040201600001549050919050565b600080600061364d84611e6a565b80925081935050506000821480156136655750600081145b1561367557600092505050613740565b60006136818583611714565b905060006136c1620186a06136b3846136a561014d89613c0f90919063ffffffff16565b613c0f90919063ffffffff16565b613a9290919063ffffffff16565b90506000600a60008873ffffffffffffffffffffffffffffffffffffffff1673ffffffffffffffffffffffffffffffffffffffff16815260200190815260200160002060010154905080821161371f57600095505050505050613740565b6000613734828461387290919063ffffffff16565b90508096505050505050505b919050565b61374d6138d8565b73ffffffffffffffffffffffffffffffffffffffff1661376b6122c9565b73ffffffffffffffffffffffffffffffffffffffff16146137c1576040517f08c379a00000000000000000000000000000000000000000000000000000000081526004016137b890614881565b60405180910390fd5b600073ffffffffffffffffffffffffffffffffffffffff168173ffffffffffffffffffffffffffffffffffffffff161415613831576040517f08c379a0000000000000000000000000000000000000000000000000000000008152600401613828906150d4565b60405180910390fd5b61383a81613aa8565b50565b600080613854601484613c0f90919063ffffffff16565b905061386a606482613a9290919063ffffffff16565b915050919050565b600081836138809190614cd4565b905092915050565b600081836138969190614a3a565b905092915050565b60006006548211156138b357600090506138d3565b6138c88260065461387290919063ffffffff16565b600681905550600190505b919050565b600033905090565b600080823b905060008111915050919050565b60006138fd6138d8565b73ffffffffffffffffffffffffffffffffffffffff1661391b6122c9565b73ffffffffffffffffffffffffffffffffffffffff1614613971576040517f08c379a000000000000000000000000000000000000000000000000000000000815260040161396890614881565b60405180910390fd5b6000600260008473ffffffffffffffffffffffffffffffffffffffff1673ffffffffffffffffffffffffffffffffffffffff168152602001908152602001600020805480602002602001604051908101604052809291908181526020016000905b82821015613a3d578382906000526020600020906004020160405180608001604052908160008201548152602001600182015481526020016002820160009054906101000a900460ff16151515158152602001600382015481525050815260200190600101906139d2565b5050505090506000815190506000805b82811015613a8657613a71613a628783613f6d565b8361388890919063ffffffff16565b91508080613a7e90614626565b915050613a4d565b50809350505050919050565b60008183613aa09190615123565b905092915050565b60008060009054906101000a900473ffffffffffffffffffffffffffffffffffffffff169050816000806101000a81548173ffffffffffffffffffffffffffffffffffffffff021916908373ffffffffffffffffffffffffffffffffffffffff1602179055508173ffffffffffffffffffffffffffffffffffffffff168173ffffffffffffffffffffffffffffffffffffffff167f8be0079c531659141344cd1fd0a4f28419497f9722a3daafe3b4186f6b6457e060405160405180910390a35050565b6000600460009054906101000a900473ffffffffffffffffffffffffffffffffffffffff1673ffffffffffffffffffffffffffffffffffffffff166370a08231306040518263ffffffff1660e01b8152600401613bc991906142c7565b602060405180830381865afa158015613be6573d6000803e3d6000fd5b505050506040513d601f19601f82011682018060405250810190613c0a9190615169565b905090565b60008183613c1d9190614c7a565b905092915050565b600073ffffffffffffffffffffffffffffffffffffffff168173ffffffffffffffffffffffffffffffffffffffff161415613c95576040517f08c379a0000000000000000000000000000000000000000000000000000000008152600401613c8c906151e2565b60405180910390fd5b613c9d6118d4565b15613cdd576040517f08c379a0000000000000000000000000000000000000000000000000000000008152600401613cd49061524e565b60405180910390fd5b600173ffffffffffffffffffffffffffffffffffffffff168173ffffffffffffffffffffffffffffffffffffffff161415613d1757613f6a565b3373ffffffffffffffffffffffffffffffffffffffff168173ffffffffffffffffffffffffffffffffffffffff161415613d86576040517f08c379a0000000000000000000000000000000000000000000000000000000008152600401613d7d906152e0565b60405180910390fd5b600960008273ffffffffffffffffffffffffffffffffffffffff1673ffffffffffffffffffffffffffffffffffffffff168152602001908152602001600020339080600181540180825580915050600190039060005260206000200160009091909190916101000a81548173ffffffffffffffffffffffffffffffffffffffff021916908373ffffffffffffffffffffffffffffffffffffffff160217905550613e2e614148565b81816000019073ffffffffffffffffffffffffffffffffffffffff16908173ffffffffffffffffffffffffffffffffffffffff1681525050600081602001818152505080600a60003373ffffffffffffffffffffffffffffffffffffffff1673ffffffffffffffffffffffffffffffffffffffff16815260200190815260200160002060008201518160000160006101000a81548173ffffffffffffffffffffffffffffffffffffffff021916908373ffffffffffffffffffffffffffffffffffffffff16021790555060208201518160010155905050600b829080600181540180825580915050600190039060005260206000200160009091909190916101000a81548173ffffffffffffffffffffffffffffffffffffffff021916908373ffffffffffffffffffffffffffffffffffffffff160217905550505b50565b6000613f776138d8565b73ffffffffffffffffffffffffffffffffffffffff16613f956122c9565b73ffffffffffffffffffffffffffffffffffffffff1614613feb576040517f08c379a0000000000000000000000000000000000000000000000000000000008152600401613fe290614881565b60405180910390fd5b6000600260008573ffffffffffffffffffffffffffffffffffffffff1673ffffffffffffffffffffffffffffffffffffffff168152602001908152602001600020838154811061403e5761403d6144df565b5b906000526020600020906004020160405180608001604052908160008201548152602001600182015481526020016002820160009054906101000a900460ff16151515158152602001600382015481525050905060008160000151905060008260600151905060006140b08787611714565b905060006140c961014d85613c0f90919063ffffffff16565b905060006140f5620186a06140e78585613c0f90919063ffffffff16565b613a9290919063ffffffff16565b9050600061410c858361387290919063ffffffff16565b90508097505050505050505092915050565b60405180608001604052806000815260200160008152602001600015158152602001600081525090565b6040518060400160405280600073ffffffffffffffffffffffffffffffffffffffff168152602001600081525090565b600080fd5b6000819050919050565b6141908161417d565b811461419b57600080fd5b50565b6000813590506141ad81614187565b92915050565b6000602082840312156141c9576141c8614178565b5b60006141d78482850161419e565b91505092915050565b6141e98161417d565b82525050565b600060208201905061420460008301846141e0565b92915050565b60008115159050919050565b61421f8161420a565b82525050565b600073ffffffffffffffffffffffffffffffffffffffff82169050919050565b600061425082614225565b9050919050565b61426081614245565b82525050565b600060c08201905061427b60008301896141e0565b6142886020830188614216565b61429560408301876141e0565b6142a26060830186614257565b6142af60808301856141e0565b6142bc60a08301846141e0565b979650505050505050565b60006020820190506142dc6000830184614257565b92915050565b60006020820190506142f76000830184614216565b92915050565b61430681614245565b811461431157600080fd5b50565b600081359050614323816142fd565b92915050565b60006020828403121561433f5761433e614178565b5b600061434d84828501614314565b91505092915050565b600081519050919050565b600082825260208201905092915050565b6000819050602082019050919050565b61438b81614245565b82525050565b600061439d8383614382565b60208301905092915050565b6000602082019050919050565b60006143c182614356565b6143cb8185614361565b93506143d683614372565b8060005b838110156144075781516143ee8882614391565b97506143f9836143a9565b9250506001810190506143da565b5085935050505092915050565b6000602082019050818103600083015261442e81846143b6565b905092915050565b6000806040838503121561444d5761444c614178565b5b600061445b85828601614314565b925050602061446c8582860161419e565b9150509250929050565b600060408201905061448b60008301856141e0565b61449860208301846141e0565b9392505050565b600080604083850312156144b6576144b5614178565b5b60006144c48582860161419e565b92505060206144d585828601614314565b9150509250929050565b7f4e487b7100000000000000000000000000000000000000000000000000000000600052603260045260246000fd5b600082825260208201905092915050565b7f5265656e7472616e637947756172643a207265656e7472616e742063616c6c00600082015250565b6000614555601f8361450e565b91506145608261451f565b602082019050919050565b6000602082019050818103600083015261458481614548565b9050919050565b7f4e6f20636f6e7472616374207365740000000000000000000000000000000000600082015250565b60006145c1600f8361450e565b91506145cc8261458b565b602082019050919050565b600060208201905081810360008301526145f0816145b4565b9050919050565b7f4e487b7100000000000000000000000000000000000000000000000000000000600052601160045260246000fd5b60006146318261417d565b91507fffffffffffffffffffffffffffffffffffffffffffffffffffffffffffffffff821415614664576146636145f7565b5b600182019050919050565b7f4d616368696e65206c696d697420726561636865640000000000000000000000600082015250565b60006146a560158361450e565b91506146b08261466f565b602082019050919050565b600060208201905081810360008301526146d481614698565b9050919050565b7f506f742065786861757374656400000000000000000000000000000000000000600082015250565b6000614711600d8361450e565b915061471c826146db565b602082019050919050565b6000602082019050818103600083015261474081614704565b9050919050565b600060408201905061475c6000830185614257565b61476960208301846141e0565b9392505050565b6147798161420a565b811461478457600080fd5b50565b60008151905061479681614770565b92915050565b6000602082840312156147b2576147b1614178565b5b60006147c084828501614787565b91505092915050565b7f556e61626c6520746f207472616e736665722066756e64730000000000000000600082015250565b60006147ff60188361450e565b915061480a826147c9565b602082019050919050565b6000602082019050818103600083015261482e816147f2565b9050919050565b7f4f776e61626c653a2063616c6c6572206973206e6f7420746865206f776e6572600082015250565b600061486b60208361450e565b915061487682614835565b602082019050919050565b6000602082019050818103600083015261489a8161485e565b9050919050565b7f546865206164647265737320646f6573206e6f7420706f696e7420746f20612060008201527f636f6e7472616374000000000000000000000000000000000000000000000000602082015250565b60006148fd60288361450e565b9150614908826148a1565b604082019050919050565b6000602082019050818103600083015261492c816148f0565b9050919050565b7f5374616b65207765726520616c72656164792072657475726e65640000000000600082015250565b6000614969601b8361450e565b915061497482614933565b602082019050919050565b600060208201905081810360008301526149988161495c565b9050919050565b7f4c696d6974207265616368656400000000000000000000000000000000000000600082015250565b60006149d5600d8361450e565b91506149e08261499f565b602082019050919050565b60006020820190508181036000830152614a04816149c8565b9050919050565b7f4e487b7100000000000000000000000000000000000000000000000000000000600052600160045260246000fd5b6000614a458261417d565b9150614a508361417d565b9250827fffffffffffffffffffffffffffffffffffffffffffffffffffffffffffffffff03821115614a8557614a846145f7565b5b828201905092915050565b7f537570706c696564206c696d6974207265616368656400000000000000000000600082015250565b6000614ac660168361450e565b9150614ad182614a90565b602082019050919050565b60006020820190508181036000830152614af581614ab9565b9050919050565b60008160011c9050919050565b6000808291508390505b6001851115614b5357808604811115614b2f57614b2e6145f7565b5b6001851615614b3e5780820291505b8081029050614b4c85614afc565b9450614b13565b94509492505050565b600082614b6c5760019050614c28565b81614b7a5760009050614c28565b8160018114614b905760028114614b9a57614bc9565b6001915050614c28565b60ff841115614bac57614bab6145f7565b5b8360020a915084821115614bc357614bc26145f7565b5b50614c28565b5060208310610133831016604e8410600b8410161715614bfe5782820a905083811115614bf957614bf86145f7565b5b614c28565b614c0b8484846001614b09565b92509050818404811115614c2257614c216145f7565b5b81810290505b9392505050565b6000614c3a8261417d565b9150614c458361417d565b9250614c727fffffffffffffffffffffffffffffffffffffffffffffffffffffffffffffffff8484614b5c565b905092915050565b6000614c858261417d565b9150614c908361417d565b9250817fffffffffffffffffffffffffffffffffffffffffffffffffffffffffffffffff0483118215151615614cc957614cc86145f7565b5b828202905092915050565b6000614cdf8261417d565b9150614cea8361417d565b925082821015614cfd57614cfc6145f7565b5b828203905092915050565b7f596f75206d757374207374616b65206174206c656173742031303020746f6b6560008201527f6e73000000000000000000000000000000000000000000000000000000000000602082015250565b6000614d6460228361450e565b9150614d6f82614d08565b604082019050919050565b60006020820190508181036000830152614d9381614d57565b9050919050565b7f596f75206d757374207374616b65206174206d6178696d756d2031303030303060008201527f20746f6b656e7300000000000000000000000000000000000000000000000000602082015250565b6000614df660278361450e565b9150614e0182614d9a565b604082019050919050565b60006020820190508181036000830152614e2581614de9565b9050919050565b7f537562736372697074696f6e20656e6465640000000000000000000000000000600082015250565b6000614e6260128361450e565b9150614e6d82614e2c565b602082019050919050565b60006020820190508181036000830152614e9181614e55565b9050919050565b6000606082019050614ead6000830186614257565b614eba6020830185614257565b614ec760408301846141e0565b949350505050565b6000604082019050614ee460008301856141e0565b614ef16020830184614257565b9392505050565b7f54686520546f6b656e20436f6e7472616374206973206e6f742073706563696660008201527f6965640000000000000000000000000000000000000000000000000000000000602082015250565b6000614f5460238361450e565b9150614f5f82614ef8565b604082019050919050565b60006020820190508181036000830152614f8381614f47565b9050919050565b7f4e6f7420656e6f75676820746f6b656e00000000000000000000000000000000600082015250565b6000614fc060108361450e565b9150614fcb82614f8a565b602082019050919050565b60006020820190508181036000830152614fef81614fb3565b9050919050565b7f556e61626c6520746f207472616e6665722066756e6473000000000000000000600082015250565b600061502c60178361450e565b915061503782614ff6565b602082019050919050565b6000602082019050818103600083015261505b8161501f565b9050919050565b7f4f776e61626c653a206e6577206f776e657220697320746865207a65726f206160008201527f6464726573730000000000000000000000000000000000000000000000000000602082015250565b60006150be60268361450e565b91506150c982615062565b604082019050919050565b600060208201905081810360008301526150ed816150b1565b9050919050565b7f4e487b7100000000000000000000000000000000000000000000000000000000600052601260045260246000fd5b600061512e8261417d565b91506151398361417d565b925082615149576151486150f4565b5b828204905092915050565b60008151905061516381614187565b92915050565b60006020828403121561517f5761517e614178565b5b600061518d84828501615154565b91505092915050565b7f496e76616c696420616464726573730000000000000000000000000000000000600082015250565b60006151cc600f8361450e565b91506151d782615196565b602082019050919050565b600060208201905081810360008301526151fb816151bf565b9050919050565b7f526566657272616c20616c726561647920736574746564000000000000000000600082015250565b600061523860178361450e565b915061524382615202565b602082019050919050565b600060208201905081810360008301526152678161522b565b9050919050565b7f526566657272616c206973207468652073616d65206173207468652073656e6460008201527f65722c20666f7262696464656e00000000000000000000000000000000000000602082015250565b60006152ca602d8361450e565b91506152d58261526e565b604082019050919050565b600060208201905081810360008301526152f9816152bd565b905091905056fea26469706673582212209e24683b4fb87f0628327216186d6d47c80da5c7cccd34ae8d563c9ee48eae0464736f6c634300080a0033",
  "immutableReferences": {},
  "source": "pragma solidity ^0.8.0;\r\n\r\nimport \"@openzeppelin/contracts/token/ERC20/ERC20.sol\";\r\nimport \"@openzeppelin/contracts/utils/math/SafeMath.sol\";\r\nimport \"@openzeppelin/contracts/access/Ownable.sol\";\r\nimport \"@openzeppelin/contracts/utils/Address.sol\";\r\nimport \"@openzeppelin/contracts/security/ReentrancyGuard.sol\";\r\n\r\ncontract Staking is Ownable, ReentrancyGuard {\r\n  using SafeMath for uint256;\r\n  using SafeMath for uint256;\r\n  using SafeMath for uint8;\r\n\r\n  struct Stake {\r\n      uint256 deposit_amount; //Deposited Amount\r\n      uint256 stake_creation_time; //The time when the stake was created\r\n      bool returned; //Specifies if the funds were withdrawed\r\n      uint256 alreadyWithdrawedAmount; // TODO Correct Lint\r\n  }\r\n\r\n  struct Account {\r\n      address referral;\r\n      uint256 referralAlreadyWithdrawed;\r\n  }\r\n\r\n  //---------------------------------------------------------------------\r\n  //-------------------------- EVENTS -----------------------------------\r\n  //---------------------------------------------------------------------\r\n\r\n  /**\r\n    *   @dev Emitted when the pot value changes\r\n    */\r\n  event PotUpdated(uint256 newPot);\r\n\r\n  /**\r\n    *   @dev Emitted when a customer tries to withdraw an amount\r\n    *       of token greater than the one in the pot\r\n    */\r\n  event PotExhausted();\r\n\r\n  /**\r\n    *   @dev Emitted when a new stake is issued\r\n    */\r\n  event NewStake(uint256 stakeAmount, address from);\r\n\r\n  /**\r\n    *   @dev Emitted when a new stake is withdrawed\r\n    */\r\n  event StakeWithdraw(uint256 stakeID, uint256 amount);\r\n\r\n  /**\r\n    *   @dev Emitted when a referral reward is sent\r\n    */\r\n  event referralRewardSent(address account, uint256 reward);\r\n\r\n  event rewardWithdrawed(address account);\r\n\r\n  /**\r\n    *   @dev Emitted when the machine is stopped (500.000 tokens)\r\n    */\r\n  event machineStopped();\r\n\r\n  /**\r\n    *   @dev Emitted when the subscription is stopped (400.000 tokens)\r\n    */\r\n  event subscriptionStopped();\r\n\r\n  //--------------------------------------------------------------------\r\n  //-------------------------- GLOBALS -----------------------------------\r\n  //--------------------------------------------------------------------\r\n\r\n  mapping(address => Stake[]) private stake; /// @dev Map that contains account's stakes\r\n\r\n  address private tokenAddress;\r\n\r\n  ERC20 private ERC20Interface;\r\n\r\n  uint256 private pot; //The pot where token are taken\r\n\r\n  uint256 private amount_supplied; //Store the remaining token to be supplied\r\n\r\n  uint256 private pauseTime; //Time when the machine paused\r\n  uint256 private stopTime; //Time when the machine stopped\r\n\r\n  // @dev Mapping the referrals\r\n  mapping(address => address[]) private referral; //Store account that used the referral\r\n\r\n  mapping(address => Account) private account_referral; //Store the setted account referral\r\n\r\n  address[] private activeAccounts; //Store both staker and referer address\r\n\r\n  uint256 private constant _DECIMALS = 18;\r\n\r\n  uint256 private constant _INTEREST_PERIOD = 1 days; //One Month\r\n  uint256 private constant _INTEREST_VALUE = 333; //0.333% per day\r\n\r\n  uint256 private constant _PENALTY_VALUE = 20; //20% of the total stake\r\n\r\n  // can stake minimum on 10 tokens\r\n  uint256 private constant _MIN_STAKE_AMOUNT = 10 * (10**_DECIMALS);\r\n  // maximum stake amount 100000\r\n  uint256 private constant _MAX_STAKE_AMOUNT = 100000 * (10**_DECIMALS);\r\n  // Referral reward;\r\n  uint256 private constant _REFERALL_REWARD = 333; //0.333% per day\r\n\r\n  uint256 private constant _MAX_TOKEN_SUPPLY_LIMIT = 50000000 * (10**_DECIMALS);\r\n\r\n  uint256 private constant _MIDTERM_TOKEN_SUPPLY_LIMIT = 40000000 * (10**_DECIMALS);\r\n\r\n  constructor() public {\r\n    pot = 0;\r\n    amount_supplied = _MAX_TOKEN_SUPPLY_LIMIT; //The total amount of token released\r\n    tokenAddress = address(0);\r\n  }\r\n\r\n  //--------------------------------------------------------------------\r\n  //-------------------------- TOKEN ADDRESS -----------------------------------\r\n  //--------------------------------------------------------------------\r\n\r\n  function setTokenAddress(address _tokenAddress) external onlyOwner {\r\n    require(\r\n      Address.isContract(_tokenAddress),\r\n      \"The address does not point to a contract\"\r\n    );\r\n\r\n    tokenAddress = _tokenAddress;\r\n    ERC20Interface = ERC20(tokenAddress);\r\n  }\r\n\r\n  function isTokenSet() external view returns (bool) {\r\n    require(tokenAddress != address(0), \r\n      \"The Token Contract is not specified\"\r\n    );\r\n    return true;\r\n  }\r\n\r\n  function getTokenAddress() external view returns (address) {\r\n    return tokenAddress;\r\n  }\r\n\r\n  //--------------------------------------------------------------------\r\n  //-------------------------- ONLY OWNER -----------------------------------\r\n  //--------------------------------------------------------------------\r\n\r\n  function depositPot(uint256 _amount) external onlyOwner nonReentrant {\r\n    require(\r\n        tokenAddress != address(0),\r\n        \"The Token Contract is not specified\"\r\n    );\r\n\r\n    pot = pot.add(_amount);\r\n\r\n    if (ERC20Interface.transferFrom(msg.sender, address(this), _amount)) {\r\n        //Emit the event to update the UI\r\n        emit PotUpdated(pot);\r\n    } else {\r\n        revert(\"Unable to tranfer funds\");\r\n    }\r\n  }\r\n\r\n  function returnPot(uint256 _amount) external onlyOwner nonReentrant {\r\n      require(\r\n          tokenAddress != address(0),\r\n          \"The Token Contract is not specified\"\r\n      );\r\n      require(pot.sub(_amount) >= 0, \"Not enough token\");\r\n\r\n      pot = pot.sub(_amount);\r\n\r\n      if (ERC20Interface.transfer(msg.sender, _amount)) {\r\n          //Emit the event to update the UI\r\n          emit PotUpdated(pot);\r\n      } else {\r\n          revert(\"Unable to tranfer funds\");\r\n      }\r\n  }\r\n\r\n  function finalShutdown() external onlyOwner nonReentrant {\r\n      uint256 machineAmount = getMachineBalance();\r\n\r\n      if (!ERC20Interface.transfer(owner(), machineAmount)) {\r\n          revert(\"Unable to transfer funds\");\r\n      }\r\n      //Goodbye\r\n  }\r\n\r\n  function getAllAccount()\r\n      external\r\n      view\r\n      onlyOwner\r\n      returns (address[] memory)\r\n  {\r\n      return activeAccounts;\r\n  }\r\n\r\n  /**\r\n    *   @dev Check if the pot has enough balance to satisfy the potential withdraw\r\n    */\r\n  function getPotentialWithdrawAmount()\r\n      external\r\n      view\r\n      onlyOwner\r\n      returns (uint256)\r\n  {\r\n      uint256 accountNumber = activeAccounts.length;\r\n\r\n      uint256 potentialAmount = 0;\r\n\r\n      for (uint256 i = 0; i < accountNumber; i++) {\r\n          address currentAccount = activeAccounts[i];\r\n\r\n          potentialAmount = potentialAmount.add(\r\n              calculateTotalRewardReferral(currentAccount)\r\n          ); //Referral\r\n\r\n          potentialAmount = potentialAmount.add(\r\n              calculateTotalRewardToWithdraw(currentAccount)\r\n          ); //Normal Reward\r\n      }\r\n\r\n      return potentialAmount;\r\n  }\r\n\r\n  //--------------------------------------------------------------------\r\n  //-------------------------- CLIENTS -----------------------------------\r\n  //--------------------------------------------------------------------\r\n\r\n  /**\r\n    *   @dev Stake token verifying all the contraint\r\n    *   @notice Stake tokens\r\n    *   @param _amount Amoun to stake\r\n    *   @param _referralAddress Address of the referer; 0x000...1 if no referer is provided\r\n    */\r\n  function stakeToken(uint256 _amount, address _referralAddress)\r\n      external\r\n      nonReentrant\r\n  {\r\n      require(tokenAddress != address(0), \"No contract set\");\r\n\r\n      require(\r\n          _amount >= _MIN_STAKE_AMOUNT,\r\n          \"You must stake at least 100 tokens\"\r\n      );\r\n      require(\r\n          _amount <= _MAX_STAKE_AMOUNT,\r\n          \"You must stake at maximum 100000 tokens\"\r\n      );\r\n\r\n      require(!isSubscriptionEnded(), \"Subscription ended\");\r\n\r\n      address staker = msg.sender;\r\n      Stake memory newStake;\r\n\r\n      newStake.deposit_amount = _amount;\r\n      newStake.returned = false;\r\n      newStake.stake_creation_time = block.timestamp;\r\n      newStake.alreadyWithdrawedAmount = 0;\r\n\r\n      stake[staker].push(newStake);\r\n\r\n      if (!hasReferral()) {\r\n          setReferral(_referralAddress);\r\n      }\r\n\r\n      activeAccounts.push(msg.sender);\r\n\r\n      if (ERC20Interface.transferFrom(msg.sender, address(this), _amount)) {\r\n          emit NewStake(_amount, _referralAddress);\r\n      } else {\r\n          revert(\"Unable to transfer funds\");\r\n      }\r\n  }\r\n\r\n  /**\r\n    *   @dev Return the staked tokens, requiring that the stake was\r\n    *        not alreay withdrawed\r\n    *   @notice Return staked token\r\n    *   @param _stakeID The ID of the stake to be returned\r\n    */\r\n  function returnTokens(uint256 _stakeID)\r\n      external\r\n      nonReentrant\r\n      returns (bool)\r\n  {\r\n      Stake memory selectedStake = stake[msg.sender][_stakeID];\r\n\r\n      //Check if the stake were already withdraw\r\n      require(selectedStake.returned == false, \"Stake were already returned\");\r\n\r\n      uint256 deposited_amount = selectedStake.deposit_amount;\r\n      //Get the net reward\r\n      uint256 penalty = calculatePenalty(deposited_amount);\r\n\r\n      //Sum the net reward to the total reward to withdraw\r\n      uint256 total_amount = deposited_amount.sub(penalty);\r\n\r\n      //Update the supplied amount considering also the penalty\r\n      uint256 supplied = deposited_amount.sub(total_amount);\r\n      require(updateSuppliedToken(supplied), \"Limit reached\");\r\n\r\n      //Add the penalty to the pot\r\n      pot = pot.add(penalty);\r\n\r\n      //Only set the withdraw flag in order to disable further withdraw\r\n      stake[msg.sender][_stakeID].returned = true;\r\n\r\n      if (ERC20Interface.transfer(msg.sender, total_amount)) {\r\n          emit StakeWithdraw(_stakeID, total_amount);\r\n      } else {\r\n          revert(\"Unable to transfer funds\");\r\n      }\r\n\r\n      return true;\r\n  }\r\n\r\n  function withdrawReward(uint256 _stakeID)\r\n      external\r\n      nonReentrant\r\n      returns (bool)\r\n  {\r\n      Stake memory _stake = stake[msg.sender][_stakeID];\r\n\r\n      uint256 rewardToWithdraw = calculateRewardToWithdraw(_stakeID);\r\n\r\n      require(\r\n          updateSuppliedToken(rewardToWithdraw),\r\n          \"Supplied limit reached\"\r\n      );\r\n\r\n      if (rewardToWithdraw > pot) {\r\n          revert(\"Pot exhausted\");\r\n      }\r\n\r\n      pot = pot.sub(rewardToWithdraw);\r\n\r\n      stake[msg.sender][_stakeID].alreadyWithdrawedAmount = _stake\r\n          .alreadyWithdrawedAmount\r\n          .add(rewardToWithdraw);\r\n\r\n      if (ERC20Interface.transfer(msg.sender, rewardToWithdraw)) {\r\n          emit rewardWithdrawed(msg.sender);\r\n      } else {\r\n          revert(\"Unable to transfer funds\");\r\n      }\r\n\r\n      return true;\r\n  }\r\n\r\n  function withdrawReferralReward() external nonReentrant returns (bool) {\r\n      uint256 referralCount = referral[msg.sender].length;\r\n\r\n      uint256 totalAmount = 0;\r\n\r\n      for (uint256 i = 0; i < referralCount; i++) {\r\n          address currentAccount = referral[msg.sender][i];\r\n          uint256 currentReward = calculateRewardReferral(currentAccount);\r\n\r\n          totalAmount = totalAmount.add(currentReward);\r\n\r\n          //Update the alreadyWithdrawed status\r\n          account_referral[currentAccount]\r\n              .referralAlreadyWithdrawed = account_referral[currentAccount]\r\n              .referralAlreadyWithdrawed\r\n              .add(currentReward);\r\n      }\r\n\r\n      require(updateSuppliedToken(totalAmount), \"Machine limit reached\");\r\n\r\n      //require(withdrawFromPot(totalAmount), \"Pot exhausted\");\r\n\r\n      if (totalAmount > pot) {\r\n          revert(\"Pot exhausted\");\r\n      }\r\n\r\n      pot = pot.sub(totalAmount);\r\n\r\n      if (ERC20Interface.transfer(msg.sender, totalAmount)) {\r\n          emit referralRewardSent(msg.sender, totalAmount);\r\n      } else {\r\n          revert(\"Unable to transfer funds\");\r\n      }\r\n\r\n      return true;\r\n  }\r\n\r\n  /**\r\n    *   @dev Check if the provided amount is available in the pot\r\n    *   If yes, it will update the pot value and return true\r\n    *   Otherwise it will emit a PotExhausted event and return false\r\n    */\r\n  function withdrawFromPot(uint256 _amount)\r\n      public\r\n      nonReentrant\r\n      returns (bool)\r\n  {\r\n      if (_amount > pot) {\r\n          emit PotExhausted();\r\n          return false;\r\n      }\r\n\r\n      //Update the pot value\r\n\r\n      pot = pot.sub(_amount);\r\n      return true;\r\n  }\r\n\r\n  //--------------------------------------------------------------------\r\n  //-------------------------- VIEWS -----------------------------------\r\n  //--------------------------------------------------------------------\r\n\r\n  /**\r\n    * @dev Return the amount of token in the provided caller's stake\r\n    * @param _stakeID The ID of the stake of the caller\r\n    */\r\n  function getCurrentStakeAmount(uint256 _stakeID)\r\n      external\r\n      view\r\n      returns (uint256)\r\n  {\r\n      require(tokenAddress != address(0), \"No contract set\");\r\n\r\n      return stake[msg.sender][_stakeID].deposit_amount;\r\n  }\r\n\r\n  /**\r\n    * @dev Return sum of all the caller's stake amount\r\n    * @return Amount of stake\r\n    */\r\n  function getTotalStakeAmount() external view returns (uint256) {\r\n      require(tokenAddress != address(0), \"No contract set\");\r\n\r\n      Stake[] memory currentStake = stake[msg.sender];\r\n      uint256 nummberOfStake = stake[msg.sender].length;\r\n      uint256 totalStake = 0;\r\n      uint256 tmp;\r\n      for (uint256 i = 0; i < nummberOfStake; i++) {\r\n          tmp = currentStake[i].deposit_amount;\r\n          totalStake = totalStake.add(tmp);\r\n      }\r\n\r\n      return totalStake;\r\n  }\r\n\r\n  /**\r\n    *   @dev Return all the available stake info\r\n    *   @notice Return stake info\r\n    *   @param _stakeID ID of the stake which info is returned\r\n    *\r\n    *   @return 1) Amount Deposited\r\n    *   @return 2) Bool value that tells if the stake was withdrawed\r\n    *   @return 3) Stake creation time (Unix timestamp)\r\n    *   @return 4) The eventual referAccountess != address(0), \"No contract set\");\r\n    *   @return 5) The current amount\r\n    *   @return 6) The penalty of withdraw\r\n    */\r\n  function getStakeInfo(uint256 _stakeID)\r\n      external\r\n      view\r\n      returns (\r\n          uint256,\r\n          bool,\r\n          uint256,\r\n          address,\r\n          uint256,\r\n          uint256\r\n      )\r\n  {\r\n      Stake memory selectedStake = stake[msg.sender][_stakeID];\r\n\r\n      uint256 amountToWithdraw = calculateRewardToWithdraw(_stakeID);\r\n\r\n      uint256 penalty = calculatePenalty(selectedStake.deposit_amount);\r\n\r\n      address myReferral = getMyReferral();\r\n\r\n      return (\r\n          selectedStake.deposit_amount,\r\n          selectedStake.returned,\r\n          selectedStake.stake_creation_time,\r\n          myReferral,\r\n          amountToWithdraw,\r\n          penalty\r\n      );\r\n  }\r\n\r\n  /**\r\n    *  @dev Get the current pot value\r\n    *  @return The amount of token in the current pot\r\n    */\r\n  function getCurrentPot() external view returns (uint256) {\r\n      return pot;\r\n  }\r\n\r\n  /**\r\n    * @dev Get the number of active stake of the caller\r\n    * @return Number of active stake\r\n    */\r\n  function getStakeCount() external view returns (uint256) {\r\n      return stake[msg.sender].length;\r\n  }\r\n\r\n  function getActiveStakeCount() external view returns (uint256) {\r\n      uint256 stakeCount = stake[msg.sender].length;\r\n\r\n      uint256 count = 0;\r\n\r\n      for (uint256 i = 0; i < stakeCount; i++) {\r\n          if (!stake[msg.sender][i].returned) {\r\n              count = count + 1;\r\n          }\r\n      }\r\n      return count;\r\n  }\r\n\r\n  function getReferralCount() external view returns (uint256) {\r\n      return referral[msg.sender].length;\r\n  }\r\n\r\n  function getAccountReferral() external view returns (address[] memory) {\r\n      referral[msg.sender];\r\n  }\r\n\r\n  function getAlreadyWithdrawedAmount(uint256 _stakeID)\r\n      external\r\n      view\r\n      returns (uint256)\r\n  {\r\n      return stake[msg.sender][_stakeID].alreadyWithdrawedAmount;\r\n  }\r\n\r\n  //--------------------------------------------------------------------\r\n  //-------------------------- REFERRALS -----------------------------------\r\n  //--------------------------------------------------------------------\r\n\r\n  function hasReferral() public view returns (bool) {\r\n      Account memory myAccount = account_referral[msg.sender];\r\n\r\n      if (\r\n          myAccount.referral == address(0) ||\r\n          myAccount.referral ==\r\n          address(0x0000000000000000000000000000000000000001)\r\n      ) {\r\n          //If I have no referral...\r\n          assert(myAccount.referralAlreadyWithdrawed == 0);\r\n          return false;\r\n      }\r\n\r\n      return true;\r\n  }\r\n\r\n  function getMyReferral() public view returns (address) {\r\n      Account memory myAccount = account_referral[msg.sender];\r\n\r\n      return myAccount.referral;\r\n  }\r\n\r\n  function setReferral(address referer) internal {\r\n      require(referer != address(0), \"Invalid address\");\r\n      require(!hasReferral(), \"Referral already setted\");\r\n\r\n      if (referer == address(0x0000000000000000000000000000000000000001)) {\r\n          return; //This means no referer\r\n      }\r\n\r\n      if (referer == msg.sender) {\r\n          revert(\"Referral is the same as the sender, forbidden\");\r\n      }\r\n\r\n      referral[referer].push(msg.sender);\r\n\r\n      Account memory account;\r\n\r\n      account.referral = referer;\r\n      account.referralAlreadyWithdrawed = 0;\r\n\r\n      account_referral[msg.sender] = account;\r\n\r\n      activeAccounts.push(referer); //Add to the list of active account for pot calculation\r\n  }\r\n\r\n  function getCurrentReferrals() external view returns (address[] memory) {\r\n      return referral[msg.sender];\r\n  }\r\n\r\n  /**\r\n    *   @dev Calculate the current referral reward of the specified customer\r\n    *   @return The amount of referral reward related to the given customer\r\n    */\r\n  function calculateRewardReferral(address customer)\r\n      public\r\n      view\r\n      returns (uint256)\r\n  {\r\n      uint256 lowestStake;\r\n      uint256 lowStakeID;\r\n      (lowestStake, lowStakeID) = getLowestStake(customer);\r\n\r\n      if (lowestStake == 0 && lowStakeID == 0) {\r\n          return 0;\r\n      }\r\n\r\n      uint256 periods = calculateAccountStakePeriods(customer, lowStakeID);\r\n\r\n      uint256 currentReward = lowestStake\r\n          .mul(_REFERALL_REWARD)\r\n          .mul(periods)\r\n          .div(100000);\r\n\r\n      uint256 alreadyWithdrawed = account_referral[customer]\r\n          .referralAlreadyWithdrawed;\r\n\r\n      if (currentReward <= alreadyWithdrawed) {\r\n          return 0; //Already withdrawed all the in the past\r\n      }\r\n\r\n      uint256 availableReward = currentReward.sub(alreadyWithdrawed);\r\n\r\n      return availableReward;\r\n  }\r\n\r\n  function calculateTotalRewardReferral() external view returns (uint256) {\r\n      uint256 referralCount = referral[msg.sender].length;\r\n\r\n      uint256 totalAmount = 0;\r\n\r\n      for (uint256 i = 0; i < referralCount; i++) {\r\n          totalAmount = totalAmount.add(\r\n              calculateRewardReferral(referral[msg.sender][i])\r\n          );\r\n      }\r\n\r\n      return totalAmount;\r\n  }\r\n\r\n  function calculateTotalRewardReferral(address _account)\r\n      public\r\n      view\r\n      returns (uint256)\r\n  {\r\n      uint256 referralCount = referral[_account].length;\r\n\r\n      uint256 totalAmount = 0;\r\n\r\n      for (uint256 i = 0; i < referralCount; i++) {\r\n          totalAmount = totalAmount.add(\r\n              calculateRewardReferral(referral[_account][i])\r\n          );\r\n      }\r\n\r\n      return totalAmount;\r\n  }\r\n\r\n  /**\r\n    * @dev Returns the lowest stake info of the current account\r\n    * @param customer Customer where the lowest stake is returned\r\n    * @return uint The stake amount\r\n    * @return uint The stake ID\r\n    */\r\n  function getLowestStake(address customer)\r\n      public\r\n      view\r\n      returns (uint256, uint256)\r\n  {\r\n      uint256 stakeNumber = stake[customer].length;\r\n      uint256 min = _MAX_STAKE_AMOUNT;\r\n      uint256 minID = 0;\r\n      bool foundFlag = false;\r\n\r\n      for (uint256 i = 0; i < stakeNumber; i++) {\r\n          if (stake[customer][i].deposit_amount <= min) {\r\n              if (stake[customer][i].returned) {\r\n                  continue;\r\n              }\r\n              min = stake[customer][i].deposit_amount;\r\n              minID = i;\r\n              foundFlag = true;\r\n          }\r\n      }\r\n\r\n      if (!foundFlag) {\r\n          return (0, 0);\r\n      } else {\r\n          return (min, minID);\r\n      }\r\n  }\r\n\r\n  //--------------------------------------------------------------------\r\n  //-------------------------- INTERNAL -----------------------------------\r\n  //--------------------------------------------------------------------\r\n\r\n  /**\r\n    * @dev Calculate the customer reward based on the provided stake\r\n    * param uint _stakeID The stake where the reward should be calculated\r\n    * @return The reward value\r\n    */\r\n  function calculateRewardToWithdraw(uint256 _stakeID)\r\n      public\r\n      view\r\n      returns (uint256)\r\n  {\r\n      Stake memory _stake = stake[msg.sender][_stakeID];\r\n\r\n      uint256 amount_staked = _stake.deposit_amount;\r\n      uint256 already_withdrawed = _stake.alreadyWithdrawedAmount;\r\n\r\n      uint256 periods = calculatePeriods(_stakeID); //Periods for interest calculation\r\n\r\n      uint256 interest = amount_staked.mul(_INTEREST_VALUE);\r\n\r\n      uint256 total_interest = interest.mul(periods).div(100000);\r\n\r\n      uint256 reward = total_interest.sub(already_withdrawed); //Subtract the already withdrawed amount\r\n\r\n      return reward;\r\n  }\r\n\r\n  function calculateRewardToWithdraw(address _account, uint256 _stakeID)\r\n      internal\r\n      view\r\n      onlyOwner\r\n      returns (uint256)\r\n  {\r\n      Stake memory _stake = stake[_account][_stakeID];\r\n\r\n      uint256 amount_staked = _stake.deposit_amount;\r\n      uint256 already_withdrawed = _stake.alreadyWithdrawedAmount;\r\n\r\n      uint256 periods = calculateAccountStakePeriods(_account, _stakeID); //Periods for interest calculation\r\n\r\n      uint256 interest = amount_staked.mul(_INTEREST_VALUE);\r\n\r\n      uint256 total_interest = interest.mul(periods).div(100000);\r\n\r\n      uint256 reward = total_interest.sub(already_withdrawed); //Subtract the already withdrawed amount\r\n\r\n      return reward;\r\n  }\r\n\r\n  function calculateTotalRewardToWithdraw(address _account)\r\n      internal\r\n      view\r\n      onlyOwner\r\n      returns (uint256)\r\n  {\r\n      Stake[] memory accountStakes = stake[_account];\r\n\r\n      uint256 stakeNumber = accountStakes.length;\r\n      uint256 amount = 0;\r\n\r\n      for (uint256 i = 0; i < stakeNumber; i++) {\r\n          amount = amount.add(calculateRewardToWithdraw(_account, i));\r\n      }\r\n\r\n      return amount;\r\n  }\r\n\r\n  function calculateCompoundInterest(uint256 _stakeID)\r\n      external\r\n      view\r\n      returns (uint256)\r\n  {\r\n      Stake memory _stake = stake[msg.sender][_stakeID];\r\n\r\n      uint256 periods = calculatePeriods(_stakeID);\r\n      uint256 amount_staked = _stake.deposit_amount;\r\n\r\n      uint256 excepted_amount = amount_staked;\r\n\r\n      //Calculate reward\r\n      for (uint256 i = 0; i < periods; i++) {\r\n          uint256 period_interest;\r\n\r\n          period_interest = excepted_amount.mul(_INTEREST_VALUE).div(100);\r\n\r\n          excepted_amount = excepted_amount.add(period_interest);\r\n      }\r\n\r\n      assert(excepted_amount >= amount_staked);\r\n\r\n      return excepted_amount;\r\n  }\r\n\r\n  function calculatePeriods(uint256 _stakeID) public view returns (uint256) {\r\n      Stake memory _stake = stake[msg.sender][_stakeID];\r\n\r\n      uint256 creation_time = _stake.stake_creation_time;\r\n      uint256 current_time = block.timestamp;\r\n\r\n      uint256 total_period = current_time.sub(creation_time);\r\n\r\n      uint256 periods = total_period.div(_INTEREST_PERIOD);\r\n\r\n      return periods;\r\n  }\r\n\r\n  function calculateAccountStakePeriods(address _account, uint256 _stakeID)\r\n      public\r\n      view\r\n      returns (uint256)\r\n  {\r\n      Stake memory _stake = stake[_account][_stakeID];\r\n\r\n      uint256 creation_time = _stake.stake_creation_time;\r\n      uint256 current_time = block.timestamp;\r\n\r\n      uint256 total_period = current_time.sub(creation_time);\r\n\r\n      uint256 periods = total_period.div(_INTEREST_PERIOD);\r\n\r\n      return periods;\r\n  }\r\n\r\n  function calculatePenalty(uint256 _amountStaked)\r\n      private\r\n      pure\r\n      returns (uint256)\r\n  {\r\n      uint256 tmp_penalty = _amountStaked.mul(_PENALTY_VALUE); //Take the 10 percent\r\n      return tmp_penalty.div(100);\r\n  }\r\n\r\n  function updateSuppliedToken(uint256 _amount) internal returns (bool) {\r\n      if (_amount > amount_supplied) {\r\n          return false;\r\n      }\r\n\r\n      amount_supplied = amount_supplied.sub(_amount);\r\n      return true;\r\n  }\r\n\r\n  function checkPotBalance(uint256 _amount) internal view returns (bool) {\r\n      if (pot >= _amount) {\r\n          return true;\r\n      }\r\n      return false;\r\n  }\r\n\r\n  function getMachineBalance() internal view returns (uint256) {\r\n      return ERC20Interface.balanceOf(address(this));\r\n  }\r\n\r\n  function getMachineState() external view returns (uint256) {\r\n      return amount_supplied;\r\n  }\r\n\r\n  function isSubscriptionEnded() public view returns (bool) {\r\n      if (\r\n          amount_supplied >=\r\n          _MAX_TOKEN_SUPPLY_LIMIT - _MIDTERM_TOKEN_SUPPLY_LIMIT\r\n      ) {\r\n          return false;\r\n      } else {\r\n          return true;\r\n      }\r\n  }\r\n\r\n  function isMachineStopped() public view returns (bool) {\r\n      if (amount_supplied > 0) {\r\n          return true;\r\n      } else {\r\n          return false;\r\n      }\r\n  }\r\n\r\n  //--------------------------------------------------------------\r\n  //------------------------ DEBUG -------------------------------\r\n  //--------------------------------------------------------------\r\n\r\n  function getOwner() external view returns (address) {\r\n      return owner();\r\n  }\r\n}\r\n",
  "sourcePath": "G:\\Crypto\\gta-token\\contracts\\Staking.sol",
  "compiler": {
    "name": "solc",
    "version": "0.8.10+commit.fc410830.Emscripten.clang"
  },
  "schemaVersion": "3.4.4",
  "updatedAt": "2022-03-09T20:09:16.770Z",
  "devdoc": {
    "events": {
      "NewStake(uint256,address)": {
        "details": "Emitted when a new stake is issued"
      },
      "PotExhausted()": {
        "details": "Emitted when a customer tries to withdraw an amount       of token greater than the one in the pot"
      },
      "PotUpdated(uint256)": {
        "details": "Emitted when the pot value changes"
      },
      "StakeWithdraw(uint256,uint256)": {
        "details": "Emitted when a new stake is withdrawed"
      },
      "machineStopped()": {
        "details": "Emitted when the machine is stopped (500.000 tokens)"
      },
      "referralRewardSent(address,uint256)": {
        "details": "Emitted when a referral reward is sent"
      },
      "subscriptionStopped()": {
        "details": "Emitted when the subscription is stopped (400.000 tokens)"
      }
    },
    "kind": "dev",
    "methods": {
      "calculateRewardReferral(address)": {
        "details": "Calculate the current referral reward of the specified customer",
        "returns": {
          "_0": "The amount of referral reward related to the given customer"
        }
      },
      "calculateRewardToWithdraw(uint256)": {
        "details": "Calculate the customer reward based on the provided stake param uint _stakeID The stake where the reward should be calculated",
        "returns": {
          "_0": "The reward value"
        }
      },
      "getCurrentPot()": {
        "details": "Get the current pot value",
        "returns": {
          "_0": "The amount of token in the current pot"
        }
      },
      "getCurrentStakeAmount(uint256)": {
        "details": "Return the amount of token in the provided caller's stake",
        "params": {
          "_stakeID": "The ID of the stake of the caller"
        }
      },
      "getLowestStake(address)": {
        "details": "Returns the lowest stake info of the current account",
        "params": {
          "customer": "Customer where the lowest stake is returned"
        },
        "returns": {
          "_0": "uint The stake amount",
          "_1": "uint The stake ID"
        }
      },
      "getPotentialWithdrawAmount()": {
        "details": "Check if the pot has enough balance to satisfy the potential withdraw"
      },
      "getStakeCount()": {
        "details": "Get the number of active stake of the caller",
        "returns": {
          "_0": "Number of active stake"
        }
      },
      "getStakeInfo(uint256)": {
        "details": "Return all the available stake info",
        "params": {
          "_stakeID": "ID of the stake which info is returned"
        },
        "returns": {
          "_0": "1) Amount Deposited",
          "_1": "2) Bool value that tells if the stake was withdrawed",
          "_2": "3) Stake creation time (Unix timestamp)",
          "_3": "4) The eventual referAccountess != address(0), \"No contract set\");",
          "_4": "5) The current amount",
          "_5": "6) The penalty of withdraw"
        }
      },
      "getTotalStakeAmount()": {
        "details": "Return sum of all the caller's stake amount",
        "returns": {
          "_0": "Amount of stake"
        }
      },
      "owner()": {
        "details": "Returns the address of the current owner."
      },
      "renounceOwnership()": {
        "details": "Leaves the contract without owner. It will not be possible to call `onlyOwner` functions anymore. Can only be called by the current owner. NOTE: Renouncing ownership will leave the contract without an owner, thereby removing any functionality that is only available to the owner."
      },
      "returnTokens(uint256)": {
        "details": "Return the staked tokens, requiring that the stake was        not alreay withdrawed",
        "params": {
          "_stakeID": "The ID of the stake to be returned"
        }
      },
      "stakeToken(uint256,address)": {
        "details": "Stake token verifying all the contraint",
        "params": {
          "_amount": "Amoun to stake",
          "_referralAddress": "Address of the referer; 0x000...1 if no referer is provided"
        }
      },
      "transferOwnership(address)": {
        "details": "Transfers ownership of the contract to a new account (`newOwner`). Can only be called by the current owner."
      },
      "withdrawFromPot(uint256)": {
        "details": "Check if the provided amount is available in the pot   If yes, it will update the pot value and return true   Otherwise it will emit a PotExhausted event and return false"
      }
    },
    "stateVariables": {
      "tokenAddress": {
        "details": "Map that contains account's stakes"
      }
    },
    "version": 1
  },
  "userdoc": {
    "kind": "user",
    "methods": {
      "getStakeInfo(uint256)": {
        "notice": "Return stake info"
      },
      "returnTokens(uint256)": {
        "notice": "Return staked token"
      },
      "stakeToken(uint256,address)": {
        "notice": "Stake tokens"
      }
    },
    "version": 1
  }
}