{
  "contractName": "Trixswap",
  "abi": [
    {
      "inputs": [
        {
          "internalType": "uint256",
          "name": "_totalSupply",
          "type": "uint256"
        }
      ],
      "payable": false,
      "stateMutability": "nonpayable",
      "type": "constructor"
    },
    {
      "anonymous": false,
      "inputs": [
        {
          "indexed": true,
          "internalType": "address",
          "name": "tokenOwner",
          "type": "address"
        },
        {
          "indexed": true,
          "internalType": "address",
          "name": "spender",
          "type": "address"
        },
        {
          "indexed": true,
          "internalType": "address",
          "name": "tokens",
          "type": "address"
        }
      ],
      "name": "Approval",
      "type": "event"
    },
    {
      "anonymous": false,
      "inputs": [
        {
          "indexed": true,
          "internalType": "address",
          "name": "tokenOwner",
          "type": "address"
        },
        {
          "indexed": true,
          "internalType": "address",
          "name": "spender",
          "type": "address"
        },
        {
          "indexed": false,
          "internalType": "uint256",
          "name": "tokens",
          "type": "uint256"
        }
      ],
      "name": "Approval",
      "type": "event"
    },
    {
      "anonymous": false,
      "inputs": [
        {
          "indexed": true,
          "internalType": "address",
          "name": "person",
          "type": "address"
        },
        {
          "indexed": true,
          "internalType": "uint256",
          "name": "tokenNum",
          "type": "uint256"
        }
      ],
      "name": "Minting",
      "type": "event"
    },
    {
      "anonymous": false,
      "inputs": [
        {
          "indexed": true,
          "internalType": "address",
          "name": "staker",
          "type": "address"
        },
        {
          "indexed": true,
          "internalType": "uint256",
          "name": "stakedAmount",
          "type": "uint256"
        },
        {
          "indexed": true,
          "internalType": "uint256",
          "name": "stakeDate",
          "type": "uint256"
        }
      ],
      "name": "Staked",
      "type": "event"
    },
    {
      "anonymous": false,
      "inputs": [
        {
          "indexed": true,
          "internalType": "address",
          "name": "from",
          "type": "address"
        },
        {
          "indexed": true,
          "internalType": "address",
          "name": "to",
          "type": "address"
        },
        {
          "indexed": true,
          "internalType": "address",
          "name": "tokens",
          "type": "address"
        }
      ],
      "name": "Transfer",
      "type": "event"
    },
    {
      "anonymous": false,
      "inputs": [
        {
          "indexed": true,
          "internalType": "address",
          "name": "from",
          "type": "address"
        },
        {
          "indexed": true,
          "internalType": "address",
          "name": "to",
          "type": "address"
        },
        {
          "indexed": false,
          "internalType": "uint256",
          "name": "tokens",
          "type": "uint256"
        }
      ],
      "name": "Transfer",
      "type": "event"
    },
    {
      "constant": true,
      "inputs": [],
      "name": "owner",
      "outputs": [
        {
          "internalType": "address",
          "name": "",
          "type": "address"
        }
      ],
      "payable": false,
      "stateMutability": "view",
      "type": "function"
    },
    {
      "constant": true,
      "inputs": [],
      "name": "totalSupply",
      "outputs": [
        {
          "internalType": "uint256",
          "name": "",
          "type": "uint256"
        }
      ],
      "payable": false,
      "stateMutability": "view",
      "type": "function"
    },
    {
      "constant": true,
      "inputs": [],
      "name": "name",
      "outputs": [
        {
          "internalType": "string",
          "name": "",
          "type": "string"
        }
      ],
      "payable": false,
      "stateMutability": "pure",
      "type": "function"
    },
    {
      "constant": true,
      "inputs": [],
      "name": "symbol",
      "outputs": [
        {
          "internalType": "string",
          "name": "",
          "type": "string"
        }
      ],
      "payable": false,
      "stateMutability": "pure",
      "type": "function"
    },
    {
      "constant": true,
      "inputs": [],
      "name": "decimals",
      "outputs": [
        {
          "internalType": "uint256",
          "name": "",
          "type": "uint256"
        }
      ],
      "payable": false,
      "stateMutability": "pure",
      "type": "function"
    },
    {
      "constant": true,
      "inputs": [
        {
          "internalType": "address",
          "name": "tokenOwner",
          "type": "address"
        }
      ],
      "name": "balanceOf",
      "outputs": [
        {
          "internalType": "uint256",
          "name": "",
          "type": "uint256"
        }
      ],
      "payable": false,
      "stateMutability": "view",
      "type": "function"
    },
    {
      "constant": false,
      "inputs": [
        {
          "internalType": "address",
          "name": "to",
          "type": "address"
        },
        {
          "internalType": "uint256",
          "name": "tokens",
          "type": "uint256"
        }
      ],
      "name": "transfer",
      "outputs": [
        {
          "internalType": "bool",
          "name": "",
          "type": "bool"
        }
      ],
      "payable": false,
      "stateMutability": "nonpayable",
      "type": "function"
    },
    {
      "constant": false,
      "inputs": [
        {
          "internalType": "address",
          "name": "from",
          "type": "address"
        },
        {
          "internalType": "address",
          "name": "to",
          "type": "address"
        },
        {
          "internalType": "uint256",
          "name": "tokens",
          "type": "uint256"
        }
      ],
      "name": "transferFrom",
      "outputs": [
        {
          "internalType": "bool",
          "name": "",
          "type": "bool"
        }
      ],
      "payable": false,
      "stateMutability": "nonpayable",
      "type": "function"
    },
    {
      "constant": false,
      "inputs": [
        {
          "internalType": "address",
          "name": "spender",
          "type": "address"
        },
        {
          "internalType": "uint256",
          "name": "tokens",
          "type": "uint256"
        }
      ],
      "name": "approve",
      "outputs": [
        {
          "internalType": "bool",
          "name": "",
          "type": "bool"
        }
      ],
      "payable": false,
      "stateMutability": "nonpayable",
      "type": "function"
    },
    {
      "constant": true,
      "inputs": [
        {
          "internalType": "address",
          "name": "tokenOwner",
          "type": "address"
        },
        {
          "internalType": "address",
          "name": "spender",
          "type": "address"
        }
      ],
      "name": "allowance",
      "outputs": [
        {
          "internalType": "uint256",
          "name": "remaining",
          "type": "uint256"
        }
      ],
      "payable": false,
      "stateMutability": "view",
      "type": "function"
    },
    {
      "constant": false,
      "inputs": [
        {
          "internalType": "uint256",
          "name": "tokens",
          "type": "uint256"
        }
      ],
      "name": "mint",
      "outputs": [
        {
          "internalType": "bool",
          "name": "",
          "type": "bool"
        }
      ],
      "payable": false,
      "stateMutability": "nonpayable",
      "type": "function"
    },
    {
      "constant": false,
      "inputs": [
        {
          "internalType": "address",
          "name": "account",
          "type": "address"
        },
        {
          "internalType": "uint256",
          "name": "amount",
          "type": "uint256"
        }
      ],
      "name": "burn",
      "outputs": [
        {
          "internalType": "bool",
          "name": "",
          "type": "bool"
        }
      ],
      "payable": false,
      "stateMutability": "nonpayable",
      "type": "function"
    },
    {
      "constant": false,
      "inputs": [
        {
          "internalType": "uint256",
          "name": "amount",
          "type": "uint256"
        }
      ],
      "name": "stake",
      "outputs": [
        {
          "internalType": "bool",
          "name": "",
          "type": "bool"
        }
      ],
      "payable": false,
      "stateMutability": "nonpayable",
      "type": "function"
    },
    {
      "constant": false,
      "inputs": [
        {
          "internalType": "address",
          "name": "staker",
          "type": "address"
        }
      ],
      "name": "hasStaked",
      "outputs": [
        {
          "internalType": "bool",
          "name": "",
          "type": "bool"
        }
      ],
      "payable": false,
      "stateMutability": "nonpayable",
      "type": "function"
    },
    {
      "constant": false,
      "inputs": [
        {
          "internalType": "uint256",
          "name": "amount",
          "type": "uint256"
        }
      ],
      "name": "unstake",
      "outputs": [
        {
          "internalType": "bool",
          "name": "",
          "type": "bool"
        }
      ],
      "payable": false,
      "stateMutability": "nonpayable",
      "type": "function"
    }
  ],
  "bytecode": "0x60806040526103e860005533600360006101000a81548173ffffffffffffffffffffffffffffffffffffffff021916908373ffffffffffffffffffffffffffffffffffffffff16021790555034801561005757600080fd5b506040516117ed3803806117ed8339818101604052602081101561007a57600080fd5b810190808051906020019092919050505080600281905550600254600460003373ffffffffffffffffffffffffffffffffffffffff1673ffffffffffffffffffffffffffffffffffffffff16815260200190815260200160002060008282540192505081905550506116fc806100f16000396000f3fe608060405234801561001057600080fd5b50600436106100f55760003560e01c80638da5cb5b11610097578063a694fc3a11610066578063a694fc3a146104bc578063a9059cbb14610502578063c93c8f3414610568578063dd62ed3e146105c4576100f5565b80638da5cb5b1461034357806395d89b411461038d5780639dc29fac14610410578063a0712d6814610476576100f5565b806323b872dd116100d357806323b872dd146102015780632e17de7814610287578063313ce567146102cd57806370a08231146102eb576100f5565b806306fdde03146100fa578063095ea7b31461017d57806318160ddd146101e3575b600080fd5b61010261063c565b6040518080602001828103825283818151815260200191508051906020019080838360005b83811015610142578082015181840152602081019050610127565b50505050905090810190601f16801561016f5780820380516001836020036101000a031916815260200191505b509250505060405180910390f35b6101c96004803603604081101561019357600080fd5b81019080803573ffffffffffffffffffffffffffffffffffffffff16906020019092919080359060200190929190505050610679565b604051808215151515815260200191505060405180910390f35b6101eb61076b565b6040518082815260200191505060405180910390f35b61026d6004803603606081101561021757600080fd5b81019080803573ffffffffffffffffffffffffffffffffffffffff169060200190929190803573ffffffffffffffffffffffffffffffffffffffff16906020019092919080359060200190929190505050610771565b604051808215151515815260200191505060405180910390f35b6102b36004803603602081101561029d57600080fd5b8101908080359060200190929190505050610871565b604051808215151515815260200191505060405180910390f35b6102d561089f565b6040518082815260200191505060405180910390f35b61032d6004803603602081101561030157600080fd5b81019080803573ffffffffffffffffffffffffffffffffffffffff1690602001909291905050506108a8565b6040518082815260200191505060405180910390f35b61034b6108f1565b604051808273ffffffffffffffffffffffffffffffffffffffff1673ffffffffffffffffffffffffffffffffffffffff16815260200191505060405180910390f35b610395610917565b6040518080602001828103825283818151815260200191508051906020019080838360005b838110156103d55780820151818401526020810190506103ba565b50505050905090810190601f1680156104025780820380516001836020036101000a031916815260200191505b509250505060405180910390f35b61045c6004803603604081101561042657600080fd5b81019080803573ffffffffffffffffffffffffffffffffffffffff16906020019092919080359060200190929190505050610954565b604051808215151515815260200191505060405180910390f35b6104a26004803603602081101561048c57600080fd5b8101908080359060200190929190505050610a10565b604051808215151515815260200191505060405180910390f35b6104e8600480360360208110156104d257600080fd5b8101908080359060200190929190505050610ac8565b604051808215151515815260200191505060405180910390f35b61054e6004803603604081101561051857600080fd5b81019080803573ffffffffffffffffffffffffffffffffffffffff16906020019092919080359060200190929190505050610b46565b604051808215151515815260200191505060405180910390f35b6105aa6004803603602081101561057e57600080fd5b81019080803573ffffffffffffffffffffffffffffffffffffffff169060200190929190505050610ca9565b604051808215151515815260200191505060405180910390f35b610626600480360360408110156105da57600080fd5b81019080803573ffffffffffffffffffffffffffffffffffffffff169060200190929190803573ffffffffffffffffffffffffffffffffffffffff169060200190929190505050610cbb565b6040518082815260200191505060405180910390f35b60606040518060400160405280600881526020017f5472697873776170000000000000000000000000000000000000000000000000815250905090565b600081600560003373ffffffffffffffffffffffffffffffffffffffff1673ffffffffffffffffffffffffffffffffffffffff16815260200190815260200160002060008573ffffffffffffffffffffffffffffffffffffffff1673ffffffffffffffffffffffffffffffffffffffff168152602001908152602001600020819055508273ffffffffffffffffffffffffffffffffffffffff163373ffffffffffffffffffffffffffffffffffffffff167f8c5be1e5ebec7d5bd14f71427d1e84f3dd0314c0f7b2291e5b200ac8c7c3b925846040518082815260200191505060405180910390a36001905092915050565b60025481565b600081600460008673ffffffffffffffffffffffffffffffffffffffff1673ffffffffffffffffffffffffffffffffffffffff1681526020019081526020016000205410156107bf57600080fd5b600082116107cc57600080fd5b81600460008673ffffffffffffffffffffffffffffffffffffffff1673ffffffffffffffffffffffffffffffffffffffff1681526020019081526020016000206000828254039250508190555081600460008573ffffffffffffffffffffffffffffffffffffffff1673ffffffffffffffffffffffffffffffffffffffff16815260200190815260200160002060008282540192505081905550600190509392505050565b60008061087d83610d42565b905080156108985761088e83610e00565b508091505061089a565b505b919050565b60006012905090565b6000600460008373ffffffffffffffffffffffffffffffffffffffff1673ffffffffffffffffffffffffffffffffffffffff168152602001908152602001600020549050919050565b600360009054906101000a900473ffffffffffffffffffffffffffffffffffffffff1681565b60606040518060400160405280600481526020017f5458535700000000000000000000000000000000000000000000000000000000815250905090565b6000600360009054906101000a900473ffffffffffffffffffffffffffffffffffffffff1673ffffffffffffffffffffffffffffffffffffffff163373ffffffffffffffffffffffffffffffffffffffff16146109fc576040517f08c379a00000000000000000000000000000000000000000000000000000000081526004018080602001828103825260228152602001806116486022913960400191505060405180910390fd5b610a068383610eac565b6001905092915050565b6000600360009054906101000a900473ffffffffffffffffffffffffffffffffffffffff1673ffffffffffffffffffffffffffffffffffffffff163373ffffffffffffffffffffffffffffffffffffffff1614610ab8576040517f08c379a00000000000000000000000000000000000000000000000000000000081526004018080602001828103825260228152602001806115ff6022913960400191505060405180910390fd5b610ac182610e00565b9050919050565b6000600460003373ffffffffffffffffffffffffffffffffffffffff1673ffffffffffffffffffffffffffffffffffffffff168152602001908152602001600020548210610b1557600080fd5b6000610b2083611091565b90508015610b3b57610b323384610eac565b80915050610b41565b60009150505b919050565b600081600460003373ffffffffffffffffffffffffffffffffffffffff1673ffffffffffffffffffffffffffffffffffffffff1681526020019081526020016000205411610b9357600080fd5b60008211610ba057600080fd5b81600460008573ffffffffffffffffffffffffffffffffffffffff1673ffffffffffffffffffffffffffffffffffffffff1681526020019081526020016000206000828254019250508190555081600460003373ffffffffffffffffffffffffffffffffffffffff1673ffffffffffffffffffffffffffffffffffffffff168152602001908152602001600020600082825403925050819055508273ffffffffffffffffffffffffffffffffffffffff163373ffffffffffffffffffffffffffffffffffffffff167fddf252ad1be2c89b69c2b068fc378daa952ba7f163c4a11628f55a4df523b3ef846040518082815260200191505060405180910390a36001905092915050565b6000610cb482611461565b9050919050565b6000600560008473ffffffffffffffffffffffffffffffffffffffff1673ffffffffffffffffffffffffffffffffffffffff16815260200190815260200160002060008373ffffffffffffffffffffffffffffffffffffffff1673ffffffffffffffffffffffffffffffffffffffff16815260200190815260200160002054905092915050565b600080610d4e33611461565b905080610da6576040517f08c379a000000000000000000000000000000000000000000000000000000000815260040180806020018281038252602e81526020018061169a602e913960400191505060405180910390fd5b82600160003373ffffffffffffffffffffffffffffffffffffffff1673ffffffffffffffffffffffffffffffffffffffff168152602001908152602001600020600101600082825403925050819055506001915050919050565b600081600460003373ffffffffffffffffffffffffffffffffffffffff1673ffffffffffffffffffffffffffffffffffffffff1681526020019081526020016000206000828254019250508190555081600260008282540192505081905550813373ffffffffffffffffffffffffffffffffffffffff167fffb74a97bad85a319684640c220f43fa5c71679297717f83b771aa0ab210c22c60405160405180910390a360019050919050565b600073ffffffffffffffffffffffffffffffffffffffff168273ffffffffffffffffffffffffffffffffffffffff161415610f32576040517f08c379a00000000000000000000000000000000000000000000000000000000081526004018080602001828103825260278152602001806116216027913960400191505060405180910390fd5b80600460008473ffffffffffffffffffffffffffffffffffffffff1673ffffffffffffffffffffffffffffffffffffffff168152602001908152602001600020541015610fca576040517f08c379a000000000000000000000000000000000000000000000000000000000815260040180806020018281038252603081526020018061166a6030913960400191505060405180910390fd5b80600460008473ffffffffffffffffffffffffffffffffffffffff1673ffffffffffffffffffffffffffffffffffffffff1681526020019081526020016000206000828254039250508190555080600260008282540392505081905550600073ffffffffffffffffffffffffffffffffffffffff168273ffffffffffffffffffffffffffffffffffffffff167fddf252ad1be2c89b69c2b068fc378daa952ba7f163c4a11628f55a4df523b3ef836040518082815260200191505060405180910390a35050565b6000808211611108576040517f08c379a000000000000000000000000000000000000000000000000000000000815260040180806020018281038252601d8152602001807f63616e6e6f74207374616b6520616e20656d707479207374616b696e6700000081525060200191505060405180910390fd5b600061111333611461565b905080156112c2576111236115ad565b60405180606001604052803373ffffffffffffffffffffffffffffffffffffffff168152602001858152602001428152509050600160003373ffffffffffffffffffffffffffffffffffffffff1673ffffffffffffffffffffffffffffffffffffffff168152602001908152602001600020600001819080600181540180825580915050906001820390600052602060002090600302016000909192909190915060008201518160000160006101000a81548173ffffffffffffffffffffffffffffffffffffffff021916908373ffffffffffffffffffffffffffffffffffffffff160217905550602082015181600101556040820151816002015550505083600160003373ffffffffffffffffffffffffffffffffffffffff1673ffffffffffffffffffffffffffffffffffffffff1681526020019081526020016000206001016000828254019250508190555042843373ffffffffffffffffffffffffffffffffffffffff167f1449c6dd7851abc30abf37f57715f492010519147cc2652fbc38202c18a6ee9060405160405180910390a460019250505061145c565b6112ca6115ad565b60405180606001604052803373ffffffffffffffffffffffffffffffffffffffff168152602001858152602001428152509050600160003373ffffffffffffffffffffffffffffffffffffffff1673ffffffffffffffffffffffffffffffffffffffff168152602001908152602001600020600001819080600181540180825580915050906001820390600052602060002090600302016000909192909190915060008201518160000160006101000a81548173ffffffffffffffffffffffffffffffffffffffff021916908373ffffffffffffffffffffffffffffffffffffffff160217905550602082015181600101556040820151816002015550505083600160003373ffffffffffffffffffffffffffffffffffffffff1673ffffffffffffffffffffffffffffffffffffffff1681526020019081526020016000206001018190555042843373ffffffffffffffffffffffffffffffffffffffff167f1449c6dd7851abc30abf37f57715f492010519147cc2652fbc38202c18a6ee9060405160405180910390a46001925050505b919050565b600061146b6115e4565b600160008473ffffffffffffffffffffffffffffffffffffffff1673ffffffffffffffffffffffffffffffffffffffff16815260200190815260200160002060405180604001604052908160008201805480602002602001604051908101604052809291908181526020016000905b8282101561157657838290600052602060002090600302016040518060600160405290816000820160009054906101000a900473ffffffffffffffffffffffffffffffffffffffff1673ffffffffffffffffffffffffffffffffffffffff1673ffffffffffffffffffffffffffffffffffffffff16815260200160018201548152602001600282015481525050815260200190600101906114da565b5050505081526020016001820154815250509050600081600001515111156115a25760019150506115a8565b60009150505b919050565b6040518060600160405280600073ffffffffffffffffffffffffffffffffffffffff16815260200160008152602001600081525090565b60405180604001604052806060815260200160008152509056fe4f6e6c792061646d696e732063616e2063616c6c20746869732066756e6374696f6e446576546f6b656e3a2063616e6e6f74206275726e2066726f6d207a65726f2061646472657373796f7520646f6e277420686176652061636365737320746f2063616c6c2074686174446576546f6b656e3a2043616e6e6f74206275726e206d6f7265207468616e20746865206163636f756e74206f776e73596f75206861766520746f207374616b65206669727374206265666f726520796f752063616e20756e7374616b65a265627a7a72315820eda818e67f2d961cb02d7dec66f0bcc35c5efe993304041c06fc1f1a19cef14664736f6c63430005100032",
  "source": "// SPDX-License-Identifier: MIT\r\npragma solidity >=0.4.22 <0.9.0;\r\n// pragma experimental ABIEncoderV2;\r\n\r\nimport \"./interface/IERC20.sol\";\r\nimport \"./lib/SafeMath.sol\";\r\nimport \"./interface/Stakable.sol\";\r\n\r\ncontract Trixswap is ITrixswapERC20, TrixswapStakable {\r\n  // state variable\r\n  uint256 public totalSupply;\r\n  // type modifier name\r\n  address public owner = msg.sender;\r\n\r\n  mapping(address => uint256) balances;\r\n  mapping(address => mapping(address => uint256)) allowed;\r\n\r\n  constructor(uint256 _totalSupply) public {\r\n      totalSupply = _totalSupply;\r\n      balances[msg.sender] += totalSupply;\r\n  }\r\n\r\n  function name() external pure returns (string memory) {\r\n      return \"Trixswap\";\r\n  }\r\n\r\n  function symbol() external pure returns (string memory) {\r\n      return \"TXSW\";\r\n  }\r\n\r\n  function decimals() external pure returns (uint256) {\r\n      return 18;\r\n  }\r\n\r\n  function balanceOf(address tokenOwner) external view returns (uint256) {\r\n      return balances[tokenOwner];\r\n  }\r\n\r\n  function transfer(address to, uint256 tokens) external returns (bool) {\r\n      require(balances[msg.sender] > tokens);\r\n      require(tokens > 0);\r\n      balances[to] += tokens;\r\n      balances[msg.sender] -= tokens;\r\n      emit Transfer(msg.sender, to, tokens);\r\n      return true;\r\n  }\r\n\r\n  function transferFrom(\r\n      address from,\r\n      address to,\r\n      uint256 tokens\r\n  ) external returns (bool) {\r\n      require(balances[from] >= tokens);\r\n      require(tokens > 0);\r\n      balances[from] -= tokens;\r\n      balances[to] += tokens;\r\n      return true;\r\n  }\r\n\r\n  function approve(address spender, uint256 tokens) external returns (bool) {\r\n      allowed[msg.sender][spender] = tokens;\r\n      emit Approval(msg.sender, spender, tokens);\r\n      return true;\r\n  }\r\n\r\n  function allowance(address tokenOwner, address spender)\r\n      public\r\n      view\r\n      returns (uint256 remaining)\r\n  {\r\n      return allowed[tokenOwner][spender];\r\n  }\r\n\r\n  function _mint(uint256 tokens) internal returns (bool success) {\r\n      balances[msg.sender] += tokens;\r\n      totalSupply += tokens;\r\n      emit Minting(msg.sender, tokens);\r\n      return true;\r\n  }\r\n\r\n\tfunction mint(uint256 tokens) external returns (bool){\r\n\t\trequire(msg.sender == owner, \"Only admins can call this function\");\r\n\t\treturn _mint(tokens);\r\n\t}\r\n\r\n  function _burn(address account, uint256 amount) internal {\r\n      require(\r\n          account != address(0),\r\n          \"DevToken: cannot burn from zero address\"\r\n      );\r\n      require(\r\n          balances[account] >= amount,\r\n          \"DevToken: Cannot burn more than the account owns\"\r\n      );\r\n\r\n      // Remove the amount from the account balance\r\n      balances[account] -= amount;\r\n      // Decrease totalSupply\r\n      totalSupply -= amount;\r\n      // Emit event, use zero address as reciever\r\n      emit Transfer(account, address(0), amount);\r\n  }\r\n\r\n  function burn(address account, uint256 amount)\r\n      public\r\n      returns (bool)\r\n  {\r\n    require(msg.sender == owner, \"you don't have access to call that\");\r\n      _burn(account, amount);\r\n      return true;\r\n  }\r\n\r\n  function stake(uint256 amount) public returns(bool){\r\n    require(amount < balances[msg.sender]);\r\n    bool stakingStatus = _stake(amount);\r\n    if(stakingStatus){\r\n    _burn(msg.sender, amount);\r\n    return stakingStatus;\r\n    } else {\r\n\t\t\treturn false;\r\n    }\r\n  }\r\n\r\n  function hasStaked(address staker) public returns(bool) {\r\n    return _hasStaked(staker);\r\n  }\r\n\r\n  function unstake(uint256 amount) public returns(bool) {\r\n\t\tbool unstakeStatus = _unStake(amount);\r\n\t\tif(unstakeStatus){\r\n\t\t\t_mint(amount);\r\n\t\t\treturn unstakeStatus;\r\n\t\t}\r\n  }\r\n\r\n  \r\n  event Approval(\r\n      address indexed tokenOwner,\r\n      address indexed spender,\r\n      address indexed tokens\r\n  );\r\n  event Transfer(\r\n      address indexed from,\r\n      address indexed to,\r\n      address indexed tokens\r\n  );\r\n}\r\n",
  "sourcePath": "G:\\Crypto\\dex-dev\\contracts\\Trixswap.sol",
  "compiler": {
    "name": "solc",
    "version": "0.5.16+commit.9c3226ce.Emscripten.clang"
  },
  "schemaVersion": "3.4.4",
  "updatedAt": "2022-02-09T08:01:34.942Z",
  "networkType": "ethereum",
  "devdoc": {
    "methods": {}
  },
  "userdoc": {
    "methods": {}
  }
}