{
  "contractName": "TrixswapStakable",
  "abi": [
    {
      "inputs": [],
      "payable": false,
      "stateMutability": "nonpayable",
      "type": "constructor"
    },
    {
      "anonymous": false,
      "inputs": [
        {
          "indexed": true,
          "internalType": "address",
          "name": "user",
          "type": "address"
        },
        {
          "indexed": true,
          "internalType": "uint256",
          "name": "amount",
          "type": "uint256"
        },
        {
          "indexed": false,
          "internalType": "uint256",
          "name": "index",
          "type": "uint256"
        },
        {
          "indexed": true,
          "internalType": "uint256",
          "name": "timestamp",
          "type": "uint256"
        }
      ],
      "name": "Staked",
      "type": "event"
    },
    {
      "constant": true,
      "inputs": [
        {
          "internalType": "address",
          "name": "staker",
          "type": "address"
        }
      ],
      "name": "hasStake",
      "outputs": [
        {
          "components": [
            {
              "internalType": "uint256",
              "name": "total_amount",
              "type": "uint256"
            },
            {
              "components": [
                {
                  "internalType": "address",
                  "name": "user",
                  "type": "address"
                },
                {
                  "internalType": "uint256",
                  "name": "amount",
                  "type": "uint256"
                },
                {
                  "internalType": "uint256",
                  "name": "since",
                  "type": "uint256"
                },
                {
                  "internalType": "uint256",
                  "name": "claimable",
                  "type": "uint256"
                }
              ],
              "internalType": "struct TrixswapStakable.Stake[]",
              "name": "stakes",
              "type": "tuple[]"
            }
          ],
          "internalType": "struct TrixswapStakable.StakingSummary",
          "name": "",
          "type": "tuple"
        }
      ],
      "payable": false,
      "stateMutability": "view",
      "type": "function"
    }
  ],
  "bytecode": "0x60806040526103e860005534801561001657600080fd5b506104e5806100266000396000f3fe608060405234801561001057600080fd5b506004361061002b5760003560e01c8063e73e14bf14610030575b600080fd5b61004a600480360361004591908101906102a5565b610060565b60405161005791906103f4565b60405180910390f35b610068610276565b6000610072610276565b6040518060400160405280600081526020016001600260008873ffffffffffffffffffffffffffffffffffffffff1673ffffffffffffffffffffffffffffffffffffffff16815260200190815260200160002054815481106100d057fe5b9060005260206000209060020201600101805480602002602001604051908101604052809291908181526020016000905b828210156101a757838290600052602060002090600402016040518060800160405290816000820160009054906101000a900473ffffffffffffffffffffffffffffffffffffffff1673ffffffffffffffffffffffffffffffffffffffff1673ffffffffffffffffffffffffffffffffffffffff168152602001600182015481526020016002820154815260200160038201548152505081526020019060010190610101565b50505050815250905060008090505b8160200151518110156102365760006101e5836020015183815181106101d857fe5b602002602001015161024b565b905080836020015183815181106101f857fe5b602002602001015160600181815250508260200151828151811061021857fe5b602002602001015160200151840193505080806001019150506101b6565b50818160000181815250508092505050919050565b600080548260200151610e10846040015142038161026557fe5b04028161026e57fe5b049050919050565b604051806040016040528060008152602001606081525090565b60008135905061029f8161048b565b92915050565b6000602082840312156102b757600080fd5b60006102c584828501610290565b91505092915050565b60006102da8383610353565b60808301905092915050565b6102ef8161044f565b82525050565b600061030082610426565b61030a818561043e565b935061031583610416565b8060005b8381101561034657815161032d88826102ce565b975061033883610431565b925050600181019050610319565b5085935050505092915050565b60808201600082015161036960008501826102e6565b50602082015161037c60208501826103e5565b50604082015161038f60408501826103e5565b5060608201516103a260608501826103e5565b50505050565b60006040830160008301516103c060008601826103e5565b50602083015184820360208601526103d882826102f5565b9150508091505092915050565b6103ee81610481565b82525050565b6000602082019050818103600083015261040e81846103a8565b905092915050565b6000819050602082019050919050565b600081519050919050565b6000602082019050919050565b600082825260208201905092915050565b600061045a82610461565b9050919050565b600073ffffffffffffffffffffffffffffffffffffffff82169050919050565b6000819050919050565b6104948161044f565b811461049f57600080fd5b5056fea365627a7a7231582031bd602cb40d0a62ea4a945ef056c2c196c75f2e8bad8156fcca59168ce320266c6578706572696d656e74616cf564736f6c63430005100040",
  "source": "// SPDX-License-Identifier: MIT\r\npragma solidity >=0.4.22 <0.9.0;\r\npragma experimental ABIEncoderV2;\r\n\r\ncontract TrixswapStakable {\r\n\r\n  uint256 rewardsPerHour = 1000;\r\n\r\n\r\n  constructor() public {\r\n  }\r\n\r\n  // represents a stake\r\n  // every stake has a user, amount and timestamp when it was made\r\n  struct Stake {\r\n    address user;\r\n    uint256 amount;\r\n    uint256 since;\r\n    uint256 claimable;\r\n  }\r\n\r\n  struct StakingSummary{\r\n    uint256 total_amount;\r\n    Stake[] stakes;\r\n  }\r\n\r\n  // staker with active stakes\r\n  struct Stakeholder {\r\n    address user;\r\n    Stake[] user_stakes;\r\n  }\r\n\r\n  /// location of stakes in the contract\r\n  /// stakes for a particular address is stored at an index mapped to the address in the\r\n  /// stakes mapping\r\n  Stakeholder[] internal stakeholders;\r\n\r\n  /// maps an address to an integer that represents thier index\r\n  /// in the stakes array\r\n  mapping(address => uint256) internal stakes;\r\n\r\n  /// @notice Stake Fired anytime there is a stake\r\n  /// @dev Explain to a developer any extra details\r\n  /// @param user the user that just staked\r\n  /// @param amount the tokens the user staked\r\n  event Staked(\r\n    address indexed user,\r\n    uint256 indexed amount,\r\n    uint256 index,\r\n    uint256 indexed timestamp\r\n  );\r\n\r\n  function _addStakeHolder(address user) internal returns(uint256) {\r\n    uint256 index = stakeholders.length - 1;\r\n    stakeholders[index].user = user;\r\n    stakes[user] = index;\r\n    return index;\r\n  }\r\n\r\n  function _stake(uint256 amount) internal  {\r\n    require(amount > 0, \"cannot stake nothing\");\r\n\r\n    uint256 stakingIndex = stakes[msg.sender];\r\n    uint256 timestamp = block.timestamp;\r\n\r\n    if(stakingIndex == 0){\r\n      stakingIndex = _addStakeHolder(msg.sender);\r\n    }\r\n\r\n    stakeholders[stakingIndex].user_stakes.push(Stake(msg.sender, amount, timestamp, 0));\r\n    emit Staked(msg.sender, amount, stakingIndex, timestamp);\r\n  }\r\n\r\n  function calculateStakeReward(Stake memory stake) internal view returns(uint256){\r\n    return (((block.timestamp - stake.since)/ 1 hours) * stake.amount) / rewardsPerHour;\r\n  }\r\n\r\n  function hasStake(address staker) public view returns(StakingSummary memory){\r\n    uint256 totalStakedAmount;\r\n    StakingSummary memory summary = StakingSummary(0, stakeholders[stakes[staker]].user_stakes);\r\n    \r\n    for(uint256 s = 0; s < summary.stakes.length; s++){\r\n      uint256 availableReward = calculateStakeReward(summary.stakes[s]);\r\n      summary.stakes[s].claimable = availableReward;\r\n      totalStakedAmount = totalStakedAmount + summary.stakes[s].amount;\r\n    }\r\n    summary.total_amount = totalStakedAmount;\r\n    return summary;\r\n  }\r\n\r\n  function _withdrawStake(uint256 amount, uint256 index) internal returns(uint256){\r\n    // Grab user_index which is the index to use to grab the Stake[]\r\n    uint256 user_index = stakes[msg.sender];\r\n    Stake memory current_stake = stakeholders[user_index].user_stakes[index];\r\n    require(current_stake.amount >= amount, \"Staking: Cannot withdraw more than you have staked\");\r\n\r\n    // Calculate available Reward first before we start modifying data\r\n    uint256 reward = calculateStakeReward(current_stake);\r\n    // Remove by subtracting the money unstaked \r\n    current_stake.amount = current_stake.amount - amount;\r\n    // If stake is empty, 0, then remove it from the array of stakes\r\n    if(current_stake.amount == 0){\r\n        delete stakeholders[user_index].user_stakes[index];\r\n    }else {\r\n        // If not empty then replace the value of it\r\n        stakeholders[user_index].user_stakes[index].amount = current_stake.amount;\r\n        // Reset timer of stake\r\n        stakeholders[user_index].user_stakes[index].since = block.timestamp;    \r\n    }\r\n\r\n    return amount+reward;\r\n  }\r\n}\r\n",
  "sourcePath": "G:\\Crypto\\dex-dev\\contracts\\interface\\Stakable.sol",
  "compiler": {
    "name": "solc",
    "version": "0.5.16+commit.9c3226ce.Emscripten.clang"
  },
  "schemaVersion": "3.4.4",
  "updatedAt": "2022-02-08T10:20:55.423Z",
  "devdoc": {
    "methods": {}
  },
  "userdoc": {
    "methods": {}
  }
}