{
  "contractName": "Trixswap",
  "abi": [
    {
      "inputs": [
        {
          "internalType": "uint256",
          "name": "_totalSupply",
          "type": "uint256"
        }
      ],
      "payable": false,
      "stateMutability": "nonpayable",
      "type": "constructor"
    },
    {
      "anonymous": false,
      "inputs": [
        {
          "indexed": true,
          "internalType": "address",
          "name": "tokenOwner",
          "type": "address"
        },
        {
          "indexed": true,
          "internalType": "address",
          "name": "spender",
          "type": "address"
        },
        {
          "indexed": true,
          "internalType": "address",
          "name": "tokens",
          "type": "address"
        }
      ],
      "name": "Approval",
      "type": "event"
    },
    {
      "anonymous": false,
      "inputs": [
        {
          "indexed": true,
          "internalType": "address",
          "name": "tokenOwner",
          "type": "address"
        },
        {
          "indexed": true,
          "internalType": "address",
          "name": "spender",
          "type": "address"
        },
        {
          "indexed": false,
          "internalType": "uint256",
          "name": "tokens",
          "type": "uint256"
        }
      ],
      "name": "Approval",
      "type": "event"
    },
    {
      "anonymous": false,
      "inputs": [
        {
          "indexed": true,
          "internalType": "address",
          "name": "person",
          "type": "address"
        },
        {
          "indexed": true,
          "internalType": "uint256",
          "name": "tokenNum",
          "type": "uint256"
        }
      ],
      "name": "Minting",
      "type": "event"
    },
    {
      "anonymous": false,
      "inputs": [
        {
          "indexed": true,
          "internalType": "address",
          "name": "user",
          "type": "address"
        },
        {
          "indexed": true,
          "internalType": "uint256",
          "name": "amount",
          "type": "uint256"
        },
        {
          "indexed": false,
          "internalType": "uint256",
          "name": "index",
          "type": "uint256"
        },
        {
          "indexed": true,
          "internalType": "uint256",
          "name": "timestamp",
          "type": "uint256"
        }
      ],
      "name": "Staked",
      "type": "event"
    },
    {
      "anonymous": false,
      "inputs": [
        {
          "indexed": true,
          "internalType": "address",
          "name": "from",
          "type": "address"
        },
        {
          "indexed": true,
          "internalType": "address",
          "name": "to",
          "type": "address"
        },
        {
          "indexed": true,
          "internalType": "address",
          "name": "tokens",
          "type": "address"
        }
      ],
      "name": "Transfer",
      "type": "event"
    },
    {
      "anonymous": false,
      "inputs": [
        {
          "indexed": true,
          "internalType": "address",
          "name": "from",
          "type": "address"
        },
        {
          "indexed": true,
          "internalType": "address",
          "name": "to",
          "type": "address"
        },
        {
          "indexed": false,
          "internalType": "uint256",
          "name": "tokens",
          "type": "uint256"
        }
      ],
      "name": "Transfer",
      "type": "event"
    },
    {
      "constant": true,
      "inputs": [
        {
          "internalType": "address",
          "name": "staker",
          "type": "address"
        }
      ],
      "name": "hasStake",
      "outputs": [
        {
          "components": [
            {
              "internalType": "uint256",
              "name": "total_amount",
              "type": "uint256"
            },
            {
              "components": [
                {
                  "internalType": "address",
                  "name": "user",
                  "type": "address"
                },
                {
                  "internalType": "uint256",
                  "name": "amount",
                  "type": "uint256"
                },
                {
                  "internalType": "uint256",
                  "name": "since",
                  "type": "uint256"
                },
                {
                  "internalType": "uint256",
                  "name": "claimable",
                  "type": "uint256"
                }
              ],
              "internalType": "struct TrixswapStakable.Stake[]",
              "name": "stakes",
              "type": "tuple[]"
            }
          ],
          "internalType": "struct TrixswapStakable.StakingSummary",
          "name": "",
          "type": "tuple"
        }
      ],
      "payable": false,
      "stateMutability": "view",
      "type": "function"
    },
    {
      "constant": true,
      "inputs": [],
      "name": "owner",
      "outputs": [
        {
          "internalType": "address",
          "name": "",
          "type": "address"
        }
      ],
      "payable": false,
      "stateMutability": "view",
      "type": "function"
    },
    {
      "constant": true,
      "inputs": [],
      "name": "totalSupply",
      "outputs": [
        {
          "internalType": "uint256",
          "name": "",
          "type": "uint256"
        }
      ],
      "payable": false,
      "stateMutability": "view",
      "type": "function"
    },
    {
      "constant": true,
      "inputs": [],
      "name": "name",
      "outputs": [
        {
          "internalType": "string",
          "name": "",
          "type": "string"
        }
      ],
      "payable": false,
      "stateMutability": "pure",
      "type": "function"
    },
    {
      "constant": true,
      "inputs": [],
      "name": "symbol",
      "outputs": [
        {
          "internalType": "string",
          "name": "",
          "type": "string"
        }
      ],
      "payable": false,
      "stateMutability": "pure",
      "type": "function"
    },
    {
      "constant": true,
      "inputs": [],
      "name": "decimals",
      "outputs": [
        {
          "internalType": "uint256",
          "name": "",
          "type": "uint256"
        }
      ],
      "payable": false,
      "stateMutability": "pure",
      "type": "function"
    },
    {
      "constant": true,
      "inputs": [
        {
          "internalType": "address",
          "name": "tokenOwner",
          "type": "address"
        }
      ],
      "name": "balanceOf",
      "outputs": [
        {
          "internalType": "uint256",
          "name": "",
          "type": "uint256"
        }
      ],
      "payable": false,
      "stateMutability": "view",
      "type": "function"
    },
    {
      "constant": false,
      "inputs": [
        {
          "internalType": "address",
          "name": "to",
          "type": "address"
        },
        {
          "internalType": "uint256",
          "name": "tokens",
          "type": "uint256"
        }
      ],
      "name": "transfer",
      "outputs": [
        {
          "internalType": "bool",
          "name": "",
          "type": "bool"
        }
      ],
      "payable": false,
      "stateMutability": "nonpayable",
      "type": "function"
    },
    {
      "constant": false,
      "inputs": [
        {
          "internalType": "address",
          "name": "from",
          "type": "address"
        },
        {
          "internalType": "address",
          "name": "to",
          "type": "address"
        },
        {
          "internalType": "uint256",
          "name": "tokens",
          "type": "uint256"
        }
      ],
      "name": "transferFrom",
      "outputs": [
        {
          "internalType": "bool",
          "name": "",
          "type": "bool"
        }
      ],
      "payable": false,
      "stateMutability": "nonpayable",
      "type": "function"
    },
    {
      "constant": false,
      "inputs": [
        {
          "internalType": "address",
          "name": "spender",
          "type": "address"
        },
        {
          "internalType": "uint256",
          "name": "tokens",
          "type": "uint256"
        }
      ],
      "name": "approve",
      "outputs": [
        {
          "internalType": "bool",
          "name": "",
          "type": "bool"
        }
      ],
      "payable": false,
      "stateMutability": "nonpayable",
      "type": "function"
    },
    {
      "constant": true,
      "inputs": [
        {
          "internalType": "address",
          "name": "tokenOwner",
          "type": "address"
        },
        {
          "internalType": "address",
          "name": "spender",
          "type": "address"
        }
      ],
      "name": "allowance",
      "outputs": [
        {
          "internalType": "uint256",
          "name": "remaining",
          "type": "uint256"
        }
      ],
      "payable": false,
      "stateMutability": "view",
      "type": "function"
    },
    {
      "constant": false,
      "inputs": [
        {
          "internalType": "uint256",
          "name": "amount",
          "type": "uint256"
        }
      ],
      "name": "mint",
      "outputs": [
        {
          "internalType": "bool",
          "name": "success",
          "type": "bool"
        }
      ],
      "payable": false,
      "stateMutability": "nonpayable",
      "type": "function"
    },
    {
      "constant": false,
      "inputs": [
        {
          "internalType": "address",
          "name": "account",
          "type": "address"
        },
        {
          "internalType": "uint256",
          "name": "amount",
          "type": "uint256"
        }
      ],
      "name": "burn",
      "outputs": [
        {
          "internalType": "bool",
          "name": "",
          "type": "bool"
        }
      ],
      "payable": false,
      "stateMutability": "nonpayable",
      "type": "function"
    },
    {
      "constant": false,
      "inputs": [
        {
          "internalType": "uint256",
          "name": "_amount",
          "type": "uint256"
        }
      ],
      "name": "stake",
      "outputs": [],
      "payable": false,
      "stateMutability": "nonpayable",
      "type": "function"
    },
    {
      "constant": false,
      "inputs": [
        {
          "internalType": "uint256",
          "name": "amount",
          "type": "uint256"
        },
        {
          "internalType": "uint256",
          "name": "stake_index",
          "type": "uint256"
        }
      ],
      "name": "withdrawStake",
      "outputs": [],
      "payable": false,
      "stateMutability": "nonpayable",
      "type": "function"
    }
  ],
  "bytecode": "0x60806040526103e860005533600460006101000a81548173ffffffffffffffffffffffffffffffffffffffff021916908373ffffffffffffffffffffffffffffffffffffffff1602179055503480156200005857600080fd5b5060405162001d4738038062001d4783398181016040526200007e9190810190620000f2565b80600381905550600354600560003373ffffffffffffffffffffffffffffffffffffffff1673ffffffffffffffffffffffffffffffffffffffff168152602001908152602001600020600082825401925050819055505062000142565b600081519050620000ec8162000128565b92915050565b6000602082840312156200010557600080fd5b60006200011584828501620000db565b91505092915050565b6000819050919050565b62000133816200011e565b81146200013f57600080fd5b50565b611bf580620001526000396000f3fe608060405234801561001057600080fd5b50600436106100f55760003560e01c806395d89b4111610097578063a9059cbb11610066578063a9059cbb1461029c578063dd62ed3e146102cc578063e73e14bf146102fc578063f1fdf4691461032c576100f5565b806395d89b41146102025780639dc29fac14610220578063a0712d6814610250578063a694fc3a14610280576100f5565b806323b872dd116100d357806323b872dd14610166578063313ce5671461019657806370a08231146101b45780638da5cb5b146101e4576100f5565b806306fdde03146100fa578063095ea7b31461011857806318160ddd14610148575b600080fd5b610102610348565b60405161010f9190611984565b60405180910390f35b610132600480360361012d91908101906114e3565b610385565b60405161013f9190611969565b60405180910390f35b610150610477565b60405161015d9190611a88565b60405180910390f35b610180600480360361017b9190810190611494565b61047d565b60405161018d9190611969565b60405180910390f35b61019e61057d565b6040516101ab9190611a88565b60405180910390f35b6101ce60048036036101c9919081019061142f565b610586565b6040516101db9190611a88565b60405180910390f35b6101ec6105cf565b6040516101f9919061194e565b60405180910390f35b61020a6105f5565b6040516102179190611984565b60405180910390f35b61023a600480360361023591908101906114e3565b610632565b6040516102479190611969565b60405180910390f35b61026a6004803603610265919081019061151f565b6106d8565b6040516102779190611969565b60405180910390f35b61029a6004803603610295919081019061151f565b6106e9565b005b6102b660048036036102b191908101906114e3565b610780565b6040516102c39190611969565b60405180910390f35b6102e660048036036102e19190810190611458565b6108e3565b6040516102f39190611a88565b60405180910390f35b6103166004803603610311919081019061142f565b61096a565b6040516103239190611a66565b60405180910390f35b61034660048036036103419190810190611548565b610b55565b005b60606040518060400160405280600881526020017f5472697873776170000000000000000000000000000000000000000000000000815250905090565b600081600660003373ffffffffffffffffffffffffffffffffffffffff1673ffffffffffffffffffffffffffffffffffffffff16815260200190815260200160002060008573ffffffffffffffffffffffffffffffffffffffff1673ffffffffffffffffffffffffffffffffffffffff168152602001908152602001600020819055508273ffffffffffffffffffffffffffffffffffffffff163373ffffffffffffffffffffffffffffffffffffffff167f8c5be1e5ebec7d5bd14f71427d1e84f3dd0314c0f7b2291e5b200ac8c7c3b925846040516104659190611a88565b60405180910390a36001905092915050565b60035481565b600081600560008673ffffffffffffffffffffffffffffffffffffffff1673ffffffffffffffffffffffffffffffffffffffff1681526020019081526020016000205410156104cb57600080fd5b600082116104d857600080fd5b81600560008673ffffffffffffffffffffffffffffffffffffffff1673ffffffffffffffffffffffffffffffffffffffff1681526020019081526020016000206000828254039250508190555081600560008573ffffffffffffffffffffffffffffffffffffffff1673ffffffffffffffffffffffffffffffffffffffff16815260200190815260200160002060008282540192505081905550600190509392505050565b60006012905090565b6000600560008373ffffffffffffffffffffffffffffffffffffffff1673ffffffffffffffffffffffffffffffffffffffff168152602001908152602001600020549050919050565b600460009054906101000a900473ffffffffffffffffffffffffffffffffffffffff1681565b60606040518060400160405280600481526020017f5458535700000000000000000000000000000000000000000000000000000000815250905090565b6000600460009054906101000a900473ffffffffffffffffffffffffffffffffffffffff1673ffffffffffffffffffffffffffffffffffffffff163373ffffffffffffffffffffffffffffffffffffffff16146106c4576040517f08c379a00000000000000000000000000000000000000000000000000000000081526004016106bb906119e6565b60405180910390fd5b6106ce8383610b72565b6001905092915050565b60006106e382610d5e565b50919050565b600560003373ffffffffffffffffffffffffffffffffffffffff1673ffffffffffffffffffffffffffffffffffffffff16815260200190815260200160002054811061076a576040517f08c379a0000000000000000000000000000000000000000000000000000000008152600401610761906119c6565b60405180910390fd5b61077381610e67565b61077d3382610b72565b50565b600081600560003373ffffffffffffffffffffffffffffffffffffffff1673ffffffffffffffffffffffffffffffffffffffff16815260200190815260200160002054116107cd57600080fd5b600082116107da57600080fd5b81600560008573ffffffffffffffffffffffffffffffffffffffff1673ffffffffffffffffffffffffffffffffffffffff1681526020019081526020016000206000828254019250508190555081600560003373ffffffffffffffffffffffffffffffffffffffff1673ffffffffffffffffffffffffffffffffffffffff168152602001908152602001600020600082825403925050819055508273ffffffffffffffffffffffffffffffffffffffff163373ffffffffffffffffffffffffffffffffffffffff167fddf252ad1be2c89b69c2b068fc378daa952ba7f163c4a11628f55a4df523b3ef846040516108d19190611a88565b60405180910390a36001905092915050565b6000600660008473ffffffffffffffffffffffffffffffffffffffff1673ffffffffffffffffffffffffffffffffffffffff16815260200190815260200160002060008373ffffffffffffffffffffffffffffffffffffffff1673ffffffffffffffffffffffffffffffffffffffff16815260200190815260200160002054905092915050565b6109726113ad565b600061097c6113ad565b6040518060400160405280600081526020016001600260008873ffffffffffffffffffffffffffffffffffffffff1673ffffffffffffffffffffffffffffffffffffffff16815260200190815260200160002054815481106109da57fe5b9060005260206000209060020201600101805480602002602001604051908101604052809291908181526020016000905b82821015610ab157838290600052602060002090600402016040518060800160405290816000820160009054906101000a900473ffffffffffffffffffffffffffffffffffffffff1673ffffffffffffffffffffffffffffffffffffffff1673ffffffffffffffffffffffffffffffffffffffff168152602001600182015481526020016002820154815260200160038201548152505081526020019060010190610a0b565b50505050815250905060008090505b816020015151811015610b40576000610aef83602001518381518110610ae257fe5b6020026020010151611046565b90508083602001518381518110610b0257fe5b6020026020010151606001818152505082602001518281518110610b2257fe5b60200260200101516020015184019350508080600101915050610ac0565b50818160000181815250508092505050919050565b6000610b618383611071565b9050610b6c81610d5e565b50505050565b600073ffffffffffffffffffffffffffffffffffffffff168273ffffffffffffffffffffffffffffffffffffffff161415610be2576040517f08c379a0000000000000000000000000000000000000000000000000000000008152600401610bd9906119a6565b60405180910390fd5b80600560008473ffffffffffffffffffffffffffffffffffffffff1673ffffffffffffffffffffffffffffffffffffffff168152602001908152602001600020541015610c64576040517f08c379a0000000000000000000000000000000000000000000000000000000008152600401610c5b90611a26565b60405180910390fd5b80600560008473ffffffffffffffffffffffffffffffffffffffff1673ffffffffffffffffffffffffffffffffffffffff1681526020019081526020016000205403600560008473ffffffffffffffffffffffffffffffffffffffff1673ffffffffffffffffffffffffffffffffffffffff168152602001908152602001600020819055508060035403600381905550600073ffffffffffffffffffffffffffffffffffffffff168273ffffffffffffffffffffffffffffffffffffffff167fddf252ad1be2c89b69c2b068fc378daa952ba7f163c4a11628f55a4df523b3ef83604051610d529190611a88565b60405180910390a35050565b6000600460009054906101000a900473ffffffffffffffffffffffffffffffffffffffff1673ffffffffffffffffffffffffffffffffffffffff163373ffffffffffffffffffffffffffffffffffffffff1614610dba57600080fd5b81600560003373ffffffffffffffffffffffffffffffffffffffff1673ffffffffffffffffffffffffffffffffffffffff1681526020019081526020016000206000828254019250508190555081600360008282540192505081905550813373ffffffffffffffffffffffffffffffffffffffff167fffb74a97bad85a319684640c220f43fa5c71679297717f83b771aa0ab210c22c60405160405180910390a360019050809050919050565b60008111610eaa576040517f08c379a0000000000000000000000000000000000000000000000000000000008152600401610ea190611a06565b60405180910390fd5b6000600260003373ffffffffffffffffffffffffffffffffffffffff1673ffffffffffffffffffffffffffffffffffffffff16815260200190815260200160002054905060004290506000821415610f0857610f05336112f6565b91505b60018281548110610f1557fe5b906000526020600020906002020160010160405180608001604052803373ffffffffffffffffffffffffffffffffffffffff16815260200185815260200183815260200160008152509080600181540180825580915050906001820390600052602060002090600402016000909192909190915060008201518160000160006101000a81548173ffffffffffffffffffffffffffffffffffffffff021916908373ffffffffffffffffffffffffffffffffffffffff16021790555060208201518160010155604082015181600201556060820151816003015550505080833373ffffffffffffffffffffffffffffffffffffffff167fb4caaf29adda3eefee3ad552a8e85058589bf834c7466cae4ee58787f70589ed856040516110399190611a88565b60405180910390a4505050565b600080548260200151610e10846040015142038161106057fe5b04028161106957fe5b049050919050565b600080600260003373ffffffffffffffffffffffffffffffffffffffff1673ffffffffffffffffffffffffffffffffffffffff1681526020019081526020016000205490506110be6113c7565b600182815481106110cb57fe5b906000526020600020906002020160010184815481106110e757fe5b90600052602060002090600402016040518060800160405290816000820160009054906101000a900473ffffffffffffffffffffffffffffffffffffffff1673ffffffffffffffffffffffffffffffffffffffff1673ffffffffffffffffffffffffffffffffffffffff1681526020016001820154815260200160028201548152602001600382015481525050905084816020015110156111bd576040517f08c379a00000000000000000000000000000000000000000000000000000000081526004016111b490611a46565b60405180910390fd5b60006111c882611046565b90508582602001510382602001818152505060008260200151141561126557600183815481106111f457fe5b9060005260206000209060020201600101858154811061121057fe5b9060005260206000209060040201600080820160006101000a81549073ffffffffffffffffffffffffffffffffffffffff021916905560018201600090556002820160009055600382016000905550506112e8565b81602001516001848154811061127757fe5b9060005260206000209060020201600101868154811061129357fe5b90600052602060002090600402016001018190555042600184815481106112b657fe5b906000526020600020906002020160010186815481106112d257fe5b9060005260206000209060040201600201819055505b808601935050505092915050565b60008060018080549050039050826001828154811061131157fe5b906000526020600020906002020160000160006101000a81548173ffffffffffffffffffffffffffffffffffffffff021916908373ffffffffffffffffffffffffffffffffffffffff16021790555080600260008573ffffffffffffffffffffffffffffffffffffffff1673ffffffffffffffffffffffffffffffffffffffff1681526020019081526020016000208190555080915050919050565b604051806040016040528060008152602001606081525090565b6040518060800160405280600073ffffffffffffffffffffffffffffffffffffffff1681526020016000815260200160008152602001600081525090565b60008135905061141481611b84565b92915050565b60008135905061142981611b9b565b92915050565b60006020828403121561144157600080fd5b600061144f84828501611405565b91505092915050565b6000806040838503121561146b57600080fd5b600061147985828601611405565b925050602061148a85828601611405565b9150509250929050565b6000806000606084860312156114a957600080fd5b60006114b786828701611405565b93505060206114c886828701611405565b92505060406114d98682870161141a565b9150509250925092565b600080604083850312156114f657600080fd5b600061150485828601611405565b92505060206115158582860161141a565b9150509250929050565b60006020828403121561153157600080fd5b600061153f8482850161141a565b91505092915050565b6000806040838503121561155b57600080fd5b60006115698582860161141a565b925050602061157a8582860161141a565b9150509250929050565b6000611590838361189e565b60808301905092915050565b6115a581611af8565b82525050565b6115b481611af8565b82525050565b60006115c582611ab3565b6115cf8185611ad6565b93506115da83611aa3565b8060005b8381101561160b5781516115f28882611584565b97506115fd83611ac9565b9250506001810190506115de565b5085935050505092915050565b61162181611b0a565b82525050565b600061163282611abe565b61163c8185611ae7565b935061164c818560208601611b40565b61165581611b73565b840191505092915050565b600061166d602783611ae7565b91507f446576546f6b656e3a2063616e6e6f74206275726e2066726f6d207a65726f2060008301527f61646472657373000000000000000000000000000000000000000000000000006020830152604082019050919050565b60006116d3602883611ae7565b91507f446576546f6b656e3a2043616e6e6f74207374616b65206d6f7265207468616e60008301527f20796f75206f776e0000000000000000000000000000000000000000000000006020830152604082019050919050565b6000611739602283611ae7565b91507f796f7520646f6e277420686176652061636365737320746f2063616c6c20746860008301527f61740000000000000000000000000000000000000000000000000000000000006020830152604082019050919050565b600061179f601483611ae7565b91507f63616e6e6f74207374616b65206e6f7468696e670000000000000000000000006000830152602082019050919050565b60006117df603083611ae7565b91507f446576546f6b656e3a2043616e6e6f74206275726e206d6f7265207468616e2060008301527f746865206163636f756e74206f776e73000000000000000000000000000000006020830152604082019050919050565b6000611845603283611ae7565b91507f5374616b696e673a2043616e6e6f74207769746864726177206d6f726520746860008301527f616e20796f752068617665207374616b656400000000000000000000000000006020830152604082019050919050565b6080820160008201516118b4600085018261159c565b5060208201516118c76020850182611930565b5060408201516118da6040850182611930565b5060608201516118ed6060850182611930565b50505050565b600060408301600083015161190b6000860182611930565b506020830151848203602086015261192382826115ba565b9150508091505092915050565b61193981611b36565b82525050565b61194881611b36565b82525050565b600060208201905061196360008301846115ab565b92915050565b600060208201905061197e6000830184611618565b92915050565b6000602082019050818103600083015261199e8184611627565b905092915050565b600060208201905081810360008301526119bf81611660565b9050919050565b600060208201905081810360008301526119df816116c6565b9050919050565b600060208201905081810360008301526119ff8161172c565b9050919050565b60006020820190508181036000830152611a1f81611792565b9050919050565b60006020820190508181036000830152611a3f816117d2565b9050919050565b60006020820190508181036000830152611a5f81611838565b9050919050565b60006020820190508181036000830152611a8081846118f3565b905092915050565b6000602082019050611a9d600083018461193f565b92915050565b6000819050602082019050919050565b600081519050919050565b600081519050919050565b6000602082019050919050565b600082825260208201905092915050565b600082825260208201905092915050565b6000611b0382611b16565b9050919050565b60008115159050919050565b600073ffffffffffffffffffffffffffffffffffffffff82169050919050565b6000819050919050565b60005b83811015611b5e578082015181840152602081019050611b43565b83811115611b6d576000848401525b50505050565b6000601f19601f8301169050919050565b611b8d81611af8565b8114611b9857600080fd5b50565b611ba481611b36565b8114611baf57600080fd5b5056fea365627a7a72315820d85a1675705decf0a3465e0015e6d62d8b717f57f6529b339f523a81b1a0e3dc6c6578706572696d656e74616cf564736f6c63430005100040",
  "source": "// SPDX-License-Identifier: MIT\r\npragma solidity >=0.4.22 <0.9.0;\r\npragma experimental ABIEncoderV2;\r\n\r\nimport \"./interface/IERC20.sol\";\r\nimport \"./lib/SafeMath.sol\";\r\nimport \"./interface/Stakable.sol\";\r\n\r\ncontract Trixswap is ITrixswapERC20, TrixswapStakable {\r\n  // state variable\r\n  uint256 public totalSupply;\r\n  // type modifier name\r\n  address public owner = msg.sender;\r\n\r\n  mapping(address => uint256) balances;\r\n  mapping(address => mapping(address => uint256)) allowed;\r\n\r\n  constructor(uint256 _totalSupply) public {\r\n      totalSupply = _totalSupply;\r\n      balances[msg.sender] += totalSupply;\r\n  }\r\n\r\n  function name() external pure returns (string memory) {\r\n      return \"Trixswap\";\r\n  }\r\n\r\n  function symbol() external pure returns (string memory) {\r\n      return \"TXSW\";\r\n  }\r\n\r\n  function decimals() external pure returns (uint256) {\r\n      return 18;\r\n  }\r\n\r\n  function balanceOf(address tokenOwner) external view returns (uint256) {\r\n      return balances[tokenOwner];\r\n  }\r\n\r\n  function transfer(address to, uint256 tokens) external returns (bool) {\r\n      require(balances[msg.sender] > tokens);\r\n      require(tokens > 0);\r\n      balances[to] += tokens;\r\n      balances[msg.sender] -= tokens;\r\n      emit Transfer(msg.sender, to, tokens);\r\n      return true;\r\n  }\r\n\r\n  function transferFrom(\r\n      address from,\r\n      address to,\r\n      uint256 tokens\r\n  ) external returns (bool) {\r\n      require(balances[from] >= tokens);\r\n      require(tokens > 0);\r\n      balances[from] -= tokens;\r\n      balances[to] += tokens;\r\n      return true;\r\n  }\r\n\r\n  function approve(address spender, uint256 tokens) external returns (bool) {\r\n      allowed[msg.sender][spender] = tokens;\r\n      emit Approval(msg.sender, spender, tokens);\r\n      return true;\r\n  }\r\n\r\n  function allowance(address tokenOwner, address spender)\r\n      public\r\n      view\r\n      returns (uint256 remaining)\r\n  {\r\n      return allowed[tokenOwner][spender];\r\n  }\r\n\r\n  function _mint(uint256 tokens) internal returns (bool success) {\r\n      require(msg.sender == owner);\r\n      balances[msg.sender] += tokens;\r\n      totalSupply += tokens;\r\n      emit Minting(msg.sender, tokens);\r\n      success = true;\r\n      return success;\r\n  }\r\n\r\n  function mint(uint256 amount) external returns (bool success) {\r\n    _mint(amount);\r\n  }\r\n\r\n  function _burn(address account, uint256 amount) internal {\r\n      require(\r\n          account != address(0),\r\n          \"DevToken: cannot burn from zero address\"\r\n      );\r\n      require(\r\n          balances[account] >= amount,\r\n          \"DevToken: Cannot burn more than the account owns\"\r\n      );\r\n\r\n      // Remove the amount from the account balance\r\n      balances[account] = balances[account] - amount;\r\n      // Decrease totalSupply\r\n      totalSupply = totalSupply - amount;\r\n      // Emit event, use zero address as reciever\r\n      emit Transfer(account, address(0), amount);\r\n  }\r\n\r\n  function burn(address account, uint256 amount)\r\n      public\r\n      returns (bool)\r\n  {\r\n    require(msg.sender == owner, \"you don't have access to call that\");\r\n      _burn(account, amount);\r\n      return true;\r\n  }\r\n\r\n  // staking function\r\n  function stake(uint256 _amount) public {\r\n      // Make sure staker actually is good for it\r\n      require(\r\n          _amount < balances[msg.sender],\r\n          \"DevToken: Cannot stake more than you own\"\r\n      );\r\n\r\n      _stake(_amount);\r\n      // Burn the amount of tokens on the sender\r\n      _burn(msg.sender, _amount);\r\n  }\r\n\r\n  function withdrawStake(uint256 amount, uint256 stake_index) public {\r\n      uint256 amount_to_mint = _withdrawStake(amount, stake_index);\r\n      // Return staked tokens to user\r\n      _mint(amount_to_mint);\r\n  }\r\n\r\n  event Approval(\r\n      address indexed tokenOwner,\r\n      address indexed spender,\r\n      address indexed tokens\r\n  );\r\n  event Transfer(\r\n      address indexed from,\r\n      address indexed to,\r\n      address indexed tokens\r\n  );\r\n}\r\n",
  "sourcePath": "G:\\Crypto\\dex-dev\\contracts\\Trixswap.sol",
  "compiler": {
    "name": "solc",
    "version": "0.5.16+commit.9c3226ce.Emscripten.clang"
  },
  "schemaVersion": "3.4.4",
  "updatedAt": "2022-02-08T10:21:33.264Z",
  "networkType": "ethereum",
  "devdoc": {
    "methods": {}
  },
  "userdoc": {
    "methods": {}
  }
}